{
  "_format": "hh-sol-artifact-1",
  "contractName": "Utils",
  "sourceName": "contracts/libraries/Utils.sol",
  "abi": [
    {
      "inputs": [
        {
          "internalType": "string",
          "name": "source",
          "type": "string"
        }
      ],
      "name": "_stringToBytes32",
      "outputs": [
        {
          "internalType": "bytes32",
          "name": "result",
          "type": "bytes32"
        }
      ],
      "stateMutability": "pure",
      "type": "function"
    }
  ],
  "bytecode": "0x61015761003a600b82828239805160001a60731461002d57634e487b7160e01b600052600060045260246000fd5b30600052607381538281f3fe73000000000000000000000000000000000000000030146080604052600436106100355760003560e01c8063bf6a8f9c1461003a575b600080fd5b61004f610048366004610061565b6020015190565b60405190815260200160405180910390f35b600060208284031215610072578081fd5b813567ffffffffffffffff80821115610089578283fd5b818401915084601f83011261009c578283fd5b8135818111156100ae576100ae61010b565b604051601f8201601f19908116603f011681019083821181831017156100d6576100d661010b565b816040528281528760208487010111156100ee578586fd5b826020860160208301379182016020019490945295945050505050565b634e487b7160e01b600052604160045260246000fdfea264697066735822122007834ca7159fb91b9a670560d1e12dc97c2ff5f061a88b206cbe944c8c0e0b9b64736f6c63430008040033",
  "linkReferences": {},
  "deployedLinkReferences": {}
}