{
  "_format": "hh-sol-artifact-1",
  "contractName": "Banker",
  "sourceName": "contracts/Banker.sol",
  "abi": [
    {
      "inputs": [
        {
          "internalType": "address",
          "name": "_weth",
          "type": "address"
        }
      ],
      "stateMutability": "nonpayable",
      "type": "constructor"
    },
    {
      "anonymous": false,
      "inputs": [
        {
          "indexed": true,
          "internalType": "string",
          "name": "name",
          "type": "string"
        },
        {
          "indexed": true,
          "internalType": "address",
          "name": "_address",
          "type": "address"
        },
        {
          "indexed": true,
          "internalType": "uint256",
          "name": "categoryId",
          "type": "uint256"
        }
      ],
      "name": "AddedContract",
      "type": "event"
    },
    {
      "anonymous": false,
      "inputs": [
        {
          "indexed": true,
          "internalType": "string",
          "name": "name",
          "type": "string"
        }
      ],
      "name": "AddedContractCategory",
      "type": "event"
    },
    {
      "anonymous": false,
      "inputs": [
        {
          "indexed": true,
          "internalType": "address",
          "name": "account",
          "type": "address"
        },
        {
          "indexed": true,
          "internalType": "address",
          "name": "operator",
          "type": "address"
        },
        {
          "indexed": false,
          "internalType": "bool",
          "name": "approved",
          "type": "bool"
        }
      ],
      "name": "ApprovalForAll",
      "type": "event"
    },
    {
      "anonymous": false,
      "inputs": [
        {
          "indexed": true,
          "internalType": "address",
          "name": "operator",
          "type": "address"
        },
        {
          "indexed": true,
          "internalType": "address",
          "name": "from",
          "type": "address"
        },
        {
          "indexed": true,
          "internalType": "address",
          "name": "to",
          "type": "address"
        },
        {
          "indexed": false,
          "internalType": "uint256[]",
          "name": "ids",
          "type": "uint256[]"
        },
        {
          "indexed": false,
          "internalType": "uint256[]",
          "name": "values",
          "type": "uint256[]"
        }
      ],
      "name": "TransferBatch",
      "type": "event"
    },
    {
      "anonymous": false,
      "inputs": [
        {
          "indexed": true,
          "internalType": "address",
          "name": "operator",
          "type": "address"
        },
        {
          "indexed": true,
          "internalType": "address",
          "name": "from",
          "type": "address"
        },
        {
          "indexed": true,
          "internalType": "address",
          "name": "to",
          "type": "address"
        },
        {
          "indexed": false,
          "internalType": "uint256",
          "name": "id",
          "type": "uint256"
        },
        {
          "indexed": false,
          "internalType": "uint256",
          "name": "value",
          "type": "uint256"
        }
      ],
      "name": "TransferSingle",
      "type": "event"
    },
    {
      "anonymous": false,
      "inputs": [
        {
          "indexed": false,
          "internalType": "string",
          "name": "value",
          "type": "string"
        },
        {
          "indexed": true,
          "internalType": "uint256",
          "name": "id",
          "type": "uint256"
        }
      ],
      "name": "URI",
      "type": "event"
    },
    {
      "stateMutability": "payable",
      "type": "fallback"
    },
    {
      "inputs": [],
      "name": "FGOV",
      "outputs": [
        {
          "internalType": "uint256",
          "name": "",
          "type": "uint256"
        }
      ],
      "stateMutability": "view",
      "type": "function"
    },
    {
      "inputs": [],
      "name": "FSHARES",
      "outputs": [
        {
          "internalType": "uint256",
          "name": "",
          "type": "uint256"
        }
      ],
      "stateMutability": "view",
      "type": "function"
    },
    {
      "inputs": [
        {
          "internalType": "string",
          "name": "name",
          "type": "string"
        },
        {
          "internalType": "address",
          "name": "_address",
          "type": "address"
        },
        {
          "internalType": "uint256",
          "name": "categoryId",
          "type": "uint256"
        }
      ],
      "name": "addContract",
      "outputs": [],
      "stateMutability": "nonpayable",
      "type": "function"
    },
    {
      "inputs": [
        {
          "internalType": "string",
          "name": "category",
          "type": "string"
        }
      ],
      "name": "addContractCategory",
      "outputs": [],
      "stateMutability": "nonpayable",
      "type": "function"
    },
    {
      "inputs": [
        {
          "internalType": "address",
          "name": "account",
          "type": "address"
        },
        {
          "internalType": "uint256",
          "name": "id",
          "type": "uint256"
        }
      ],
      "name": "balanceOf",
      "outputs": [
        {
          "internalType": "uint256",
          "name": "",
          "type": "uint256"
        }
      ],
      "stateMutability": "view",
      "type": "function"
    },
    {
      "inputs": [
        {
          "internalType": "address[]",
          "name": "accounts",
          "type": "address[]"
        },
        {
          "internalType": "uint256[]",
          "name": "ids",
          "type": "uint256[]"
        }
      ],
      "name": "balanceOfBatch",
      "outputs": [
        {
          "internalType": "uint256[]",
          "name": "",
          "type": "uint256[]"
        }
      ],
      "stateMutability": "view",
      "type": "function"
    },
    {
      "inputs": [
        {
          "internalType": "uint256",
          "name": "",
          "type": "uint256"
        }
      ],
      "name": "contractCategories",
      "outputs": [
        {
          "internalType": "string",
          "name": "",
          "type": "string"
        }
      ],
      "stateMutability": "view",
      "type": "function"
    },
    {
      "inputs": [
        {
          "internalType": "uint256",
          "name": "",
          "type": "uint256"
        }
      ],
      "name": "contracts",
      "outputs": [
        {
          "internalType": "string",
          "name": "name",
          "type": "string"
        },
        {
          "internalType": "address",
          "name": "_address",
          "type": "address"
        },
        {
          "internalType": "uint256",
          "name": "categoryId",
          "type": "uint256"
        }
      ],
      "stateMutability": "view",
      "type": "function"
    },
    {
      "inputs": [],
      "name": "contractsLength",
      "outputs": [
        {
          "internalType": "uint256",
          "name": "",
          "type": "uint256"
        }
      ],
      "stateMutability": "view",
      "type": "function"
    },
    {
      "inputs": [
        {
          "internalType": "uint256",
          "name": "amount",
          "type": "uint256"
        }
      ],
      "name": "ethDeposit",
      "outputs": [],
      "stateMutability": "payable",
      "type": "function"
    },
    {
      "inputs": [
        {
          "internalType": "uint256",
          "name": "amount",
          "type": "uint256"
        }
      ],
      "name": "ethWithdrawal",
      "outputs": [],
      "stateMutability": "nonpayable",
      "type": "function"
    },
    {
      "inputs": [],
      "name": "getAllContractCetgories",
      "outputs": [
        {
          "internalType": "string[]",
          "name": "_categories",
          "type": "string[]"
        }
      ],
      "stateMutability": "view",
      "type": "function"
    },
    {
      "inputs": [],
      "name": "getAllContracts",
      "outputs": [
        {
          "components": [
            {
              "internalType": "string",
              "name": "name",
              "type": "string"
            },
            {
              "internalType": "address",
              "name": "_address",
              "type": "address"
            },
            {
              "internalType": "uint256",
              "name": "categoryId",
              "type": "uint256"
            }
          ],
          "internalType": "struct DataStore.Contract[]",
          "name": "",
          "type": "tuple[]"
        }
      ],
      "stateMutability": "view",
      "type": "function"
    },
    {
      "inputs": [
        {
          "internalType": "address",
          "name": "token0",
          "type": "address"
        },
        {
          "internalType": "address",
          "name": "token1",
          "type": "address"
        },
        {
          "internalType": "uint256",
          "name": "amount",
          "type": "uint256"
        }
      ],
      "name": "getBestPrice",
      "outputs": [
        {
          "internalType": "address[]",
          "name": "routers",
          "type": "address[]"
        },
        {
          "internalType": "uint256[]",
          "name": "amounts",
          "type": "uint256[]"
        }
      ],
      "stateMutability": "view",
      "type": "function"
    },
    {
      "inputs": [
        {
          "internalType": "address",
          "name": "token0",
          "type": "address"
        },
        {
          "internalType": "address",
          "name": "token1",
          "type": "address"
        }
      ],
      "name": "getBestPriceRoutersTotal",
      "outputs": [
        {
          "internalType": "uint256",
          "name": "numResults",
          "type": "uint256"
        }
      ],
      "stateMutability": "view",
      "type": "function"
    },
    {
      "inputs": [
        {
          "internalType": "uint256",
          "name": "id",
          "type": "uint256"
        }
      ],
      "name": "getContractCategory",
      "outputs": [
        {
          "internalType": "string",
          "name": "category",
          "type": "string"
        }
      ],
      "stateMutability": "view",
      "type": "function"
    },
    {
      "inputs": [
        {
          "internalType": "string",
          "name": "name",
          "type": "string"
        }
      ],
      "name": "getContractCategoryIdFromName",
      "outputs": [
        {
          "internalType": "uint256",
          "name": "val",
          "type": "uint256"
        }
      ],
      "stateMutability": "view",
      "type": "function"
    },
    {
      "inputs": [
        {
          "internalType": "uint256",
          "name": "catId",
          "type": "uint256"
        }
      ],
      "name": "getContractsByCategory",
      "outputs": [
        {
          "components": [
            {
              "internalType": "string",
              "name": "name",
              "type": "string"
            },
            {
              "internalType": "address",
              "name": "_address",
              "type": "address"
            },
            {
              "internalType": "uint256",
              "name": "categoryId",
              "type": "uint256"
            }
          ],
          "internalType": "struct DataStore.Contract[]",
          "name": "_contracts",
          "type": "tuple[]"
        }
      ],
      "stateMutability": "view",
      "type": "function"
    },
    {
      "inputs": [
        {
          "internalType": "address",
          "name": "token",
          "type": "address"
        }
      ],
      "name": "getUserTokenBalance",
      "outputs": [
        {
          "internalType": "uint256",
          "name": "",
          "type": "uint256"
        }
      ],
      "stateMutability": "view",
      "type": "function"
    },
    {
      "inputs": [
        {
          "internalType": "address",
          "name": "account",
          "type": "address"
        },
        {
          "internalType": "address",
          "name": "operator",
          "type": "address"
        }
      ],
      "name": "isApprovedForAll",
      "outputs": [
        {
          "internalType": "bool",
          "name": "",
          "type": "bool"
        }
      ],
      "stateMutability": "view",
      "type": "function"
    },
    {
      "inputs": [
        {
          "internalType": "address",
          "name": "",
          "type": "address"
        },
        {
          "internalType": "address",
          "name": "",
          "type": "address"
        },
        {
          "internalType": "uint256[]",
          "name": "",
          "type": "uint256[]"
        },
        {
          "internalType": "uint256[]",
          "name": "",
          "type": "uint256[]"
        },
        {
          "internalType": "bytes",
          "name": "",
          "type": "bytes"
        }
      ],
      "name": "onERC1155BatchReceived",
      "outputs": [
        {
          "internalType": "bytes4",
          "name": "",
          "type": "bytes4"
        }
      ],
      "stateMutability": "nonpayable",
      "type": "function"
    },
    {
      "inputs": [
        {
          "internalType": "address",
          "name": "",
          "type": "address"
        },
        {
          "internalType": "address",
          "name": "",
          "type": "address"
        },
        {
          "internalType": "uint256",
          "name": "",
          "type": "uint256"
        },
        {
          "internalType": "uint256",
          "name": "",
          "type": "uint256"
        },
        {
          "internalType": "bytes",
          "name": "",
          "type": "bytes"
        }
      ],
      "name": "onERC1155Received",
      "outputs": [
        {
          "internalType": "bytes4",
          "name": "",
          "type": "bytes4"
        }
      ],
      "stateMutability": "nonpayable",
      "type": "function"
    },
    {
      "inputs": [
        {
          "internalType": "address",
          "name": "from",
          "type": "address"
        },
        {
          "internalType": "address",
          "name": "to",
          "type": "address"
        },
        {
          "internalType": "uint256[]",
          "name": "ids",
          "type": "uint256[]"
        },
        {
          "internalType": "uint256[]",
          "name": "amounts",
          "type": "uint256[]"
        },
        {
          "internalType": "bytes",
          "name": "data",
          "type": "bytes"
        }
      ],
      "name": "safeBatchTransferFrom",
      "outputs": [],
      "stateMutability": "nonpayable",
      "type": "function"
    },
    {
      "inputs": [
        {
          "internalType": "address",
          "name": "from",
          "type": "address"
        },
        {
          "internalType": "address",
          "name": "to",
          "type": "address"
        },
        {
          "internalType": "uint256",
          "name": "id",
          "type": "uint256"
        },
        {
          "internalType": "uint256",
          "name": "amount",
          "type": "uint256"
        },
        {
          "internalType": "bytes",
          "name": "data",
          "type": "bytes"
        }
      ],
      "name": "safeTransferFrom",
      "outputs": [],
      "stateMutability": "nonpayable",
      "type": "function"
    },
    {
      "inputs": [
        {
          "internalType": "address",
          "name": "operator",
          "type": "address"
        },
        {
          "internalType": "bool",
          "name": "approved",
          "type": "bool"
        }
      ],
      "name": "setApprovalForAll",
      "outputs": [],
      "stateMutability": "nonpayable",
      "type": "function"
    },
    {
      "inputs": [
        {
          "internalType": "bytes4",
          "name": "interfaceId",
          "type": "bytes4"
        }
      ],
      "name": "supportsInterface",
      "outputs": [
        {
          "internalType": "bool",
          "name": "",
          "type": "bool"
        }
      ],
      "stateMutability": "view",
      "type": "function"
    },
    {
      "inputs": [
        {
          "internalType": "address",
          "name": "token",
          "type": "address"
        },
        {
          "internalType": "uint256",
          "name": "amount",
          "type": "uint256"
        }
      ],
      "name": "tokenDeposit",
      "outputs": [],
      "stateMutability": "payable",
      "type": "function"
    },
    {
      "inputs": [
        {
          "internalType": "address",
          "name": "token",
          "type": "address"
        },
        {
          "internalType": "uint256",
          "name": "amount",
          "type": "uint256"
        }
      ],
      "name": "tokenWithdrawal",
      "outputs": [],
      "stateMutability": "nonpayable",
      "type": "function"
    },
    {
      "inputs": [
        {
          "internalType": "uint256",
          "name": "",
          "type": "uint256"
        }
      ],
      "name": "uri",
      "outputs": [
        {
          "internalType": "string",
          "name": "",
          "type": "string"
        }
      ],
      "stateMutability": "view",
      "type": "function"
    },
    {
      "stateMutability": "payable",
      "type": "receive"
    }
  ],
  "bytecode": "0x60806040523480156200001157600080fd5b5060405162004452380380620044528339810160408190526200003491620009fe565b6040518060600160405280602781526020016200442b6027913962000059816200018d565b5060408051808201909152600f81526e756e69737761705f666163746f727960881b60208201526200008b90620001a6565b60408051808201909152600e81526d3ab734b9bbb0b82fb937baba32b960911b6020820152620000bb90620001a6565b60408051808201909152600a81526936b0b9ba32b921b432b360b11b6020820152620000e790620001a6565b60408051808201909152600a81526936b4b734a1b432b32b1960b11b60208201526200011390620001a6565b600580546001600160a01b0319166001600160a01b03831617905560408051602081019091526000808252620001589133919069d3c21bcecceda1000000906200027f565b6200018633600069d3c21bcecceda1000000604051806020016040528060008152506200027f60201b60201c565b5062000cca565b8051620001a290600290602084019062000958565b5050565b620001b1816200039b565b15620001f65760405162461bcd60e51b815260206004820152600f60248201526e43617465676f72792065786973747360881b60448201526064015b60405180910390fd5b6004805460018101825560009190915281516200023b917f8a35acfbc15ff81a39ae7d344fd709f28e8600b4aa8c65c6b64bfe7fe36bd19b0190602084019062000958565b50806040516200024c919062000a86565b604051908190038120907f7b57dd1859191f834cc8922426168172411aa109848e6fae960407656e1ed2df90600090a250565b6001600160a01b038416620002e15760405162461bcd60e51b815260206004820152602160248201527f455243313135353a206d696e7420746f20746865207a65726f206164647265736044820152607360f81b6064820152608401620001ed565b336200030781600087620002f588620004d8565b6200030088620004d8565b5050505050565b6000848152602081815260408083206001600160a01b0389168452909152812080548592906200033990849062000b00565b909155505060408051858152602081018590526001600160a01b0380881692600092918516917fc3d58168c5ae7397731d063d5bbf3d657854427343f4c083240f7aacaa2d0f62910160405180910390a462000300816000878787876200053a565b600454600090815b81811015620004ce57620004a96200048260048381548110620003d657634e487b7160e01b600052603260045260246000fd5b906000526020600020018054620003ed9062000b76565b80601f01602080910402602001604051908101604052809291908181526020018280546200041b9062000b76565b80156200046c5780601f1062000440576101008083540402835291602001916200046c565b820191906000526020600020905b8154815290600101906020018083116200044e57829003601f168201915b50505050506200072060201b6200204c1760201c565b62000498866200072060201b6200204c1760201c565b620008f560201b620022081760201c565b15620004b9575060019392505050565b80620004c58162000bee565b915050620003a3565b5060009392505050565b604080516001808252818301909252606091600091906020808301908036833701905050905082816000815181106200052157634e487b7160e01b600052603260045260246000fd5b602090810291909101015292915050565b505050505050565b62000559846001600160a01b03166200095260201b620022611760201c565b15620005325760405163f23a6e6160e01b81526001600160a01b0385169063f23a6e619062000595908990899088908890889060040162000aa4565b602060405180830381600087803b158015620005b057600080fd5b505af1925050508015620005e3575060408051601f3d908101601f19168201909252620005e09181019062000a2e565b60015b620006a457620005f262000c22565b806308c379a014156200063357506200060a62000c3b565b8062000617575062000635565b8060405162461bcd60e51b8152600401620001ed919062000aeb565b505b60405162461bcd60e51b815260206004820152603460248201527f455243313135353a207472616e7366657220746f206e6f6e204552433131353560448201527f526563656976657220696d706c656d656e7465720000000000000000000000006064820152608401620001ed565b6001600160e01b0319811663f23a6e6160e01b14620007175760405162461bcd60e51b815260206004820152602860248201527f455243313135353a204552433131353552656365697665722072656a656374656044820152676420746f6b656e7360c01b6064820152608401620001ed565b50505050505050565b60606000829050600081516001600160401b038111156200075157634e487b7160e01b600052604160045260246000fd5b6040519080825280601f01601f1916602001820160405280156200077c576020820181803683370190505b50905060005b8251811015620008ed576041838281518110620007af57634e487b7160e01b600052603260045260246000fd5b016020015160f81c10801590620007ef5750605a838281518110620007e457634e487b7160e01b600052603260045260246000fd5b016020015160f81c11155b1562000873578281815181106200081657634e487b7160e01b600052603260045260246000fd5b602001015160f81c60f81b60f81c602062000832919062000b1b565b60f81b8282815181106200085657634e487b7160e01b600052603260045260246000fd5b60200101906001600160f81b031916908160001a905350620008d8565b8281815181106200089457634e487b7160e01b600052603260045260246000fd5b602001015160f81c60f81b828281518110620008c057634e487b7160e01b600052603260045260246000fd5b60200101906001600160f81b031916908160001a9053505b80620008e48162000bee565b91505062000782565b509392505050565b6000816040516020016200090a919062000a86565b604051602081830303815290604052805190602001208360405160200162000933919062000a86565b6040516020818303038152906040528051906020012014905092915050565b3b151590565b828054620009669062000b76565b90600052602060002090601f0160209004810192826200098a5760008555620009d5565b82601f10620009a557805160ff1916838001178555620009d5565b82800160010185558215620009d5579182015b82811115620009d5578251825591602001919060010190620009b8565b50620009e3929150620009e7565b5090565b5b80821115620009e35760008155600101620009e8565b60006020828403121562000a10578081fd5b81516001600160a01b038116811462000a27578182fd5b9392505050565b60006020828403121562000a40578081fd5b81516001600160e01b03198116811462000a27578182fd5b6000815180845262000a7281602086016020860162000b43565b601f01601f19169290920160200192915050565b6000825162000a9a81846020870162000b43565b9190910192915050565b6001600160a01b03868116825285166020820152604081018490526060810183905260a06080820181905260009062000ae09083018462000a58565b979650505050505050565b60208152600062000a27602083018462000a58565b6000821982111562000b165762000b1662000c0c565b500190565b600060ff821660ff84168060ff0382111562000b3b5762000b3b62000c0c565b019392505050565b60005b8381101562000b6057818101518382015260200162000b46565b8381111562000b70576000848401525b50505050565b600181811c9082168062000b8b57607f821691505b6020821081141562000bad57634e487b7160e01b600052602260045260246000fd5b50919050565b601f8201601f191681016001600160401b038111828210171562000be757634e487b7160e01b600052604160045260246000fd5b6040525050565b600060001982141562000c055762000c0562000c0c565b5060010190565b634e487b7160e01b600052601160045260246000fd5b600060033d111562000c3857600481823e5160e01c5b90565b600060443d101562000c4a5790565b6040516003193d81016004833e81513d6001600160401b03808311602484018310171562000c7a57505050505090565b828501915081518181111562000c935750505050505090565b843d870101602082850101111562000cae5750505050505090565b62000cbf6020828601018762000bb3565b509095945050505050565b6137518062000cda6000396000f3fe6080604052600436106101ad5760003560e01c80638fa76f03116100eb578063d6d2aedb1161008f578063f23a6e6111610061578063f23a6e6114610532578063f242432a1461055e578063f5aec88c1461057e578063fdd6d4d7146105c157005b8063d6d2aedb1461049b578063dca812a1146102a8578063de0b45e5146104c9578063e985e9c5146104e957005b8063a3fd6847116100c8578063a3fd6847146103f4578063ae43cd8414610416578063b8278f4514610436578063bc197c811461045657005b80638fa76f031461039457806399a88602146103b4578063a22cb465146103d457005b80633fad74ad1161015257806345a914671161012f57806345a9146714610305578063474da79a146103255780634e1273f41461035457806351390c031461038157005b80633fad74ad146102bd57806343054fbf146102d2578063443f41d5146102f257005b806318d3ce961161018b57806318d3ce96146102465780632da7fac8146102685780632eb2c2d6146102885780633062e157146102a857005b8062fdd58e146101b657806301ffc9a7146101e95780630e89341c1461021957005b366101b457005b005b3480156101c257600080fd5b506101d66101d1366004612cc6565b6105e1565b6040519081526020015b60405180910390f35b3480156101f557600080fd5b50610209610204366004612fcd565b610678565b60405190151581526020016101e0565b34801561022557600080fd5b50610239610234366004613085565b610689565b6040516101e09190613342565b34801561025257600080fd5b5061025b61071d565b6040516101e091906132a1565b34801561027457600080fd5b506101b4610283366004613005565b610831565b34801561029457600080fd5b506101b46102a3366004612b4a565b6108fe565b3480156102b457600080fd5b506101d6600081565b3480156102c957600080fd5b506003546101d6565b3480156102de57600080fd5b506101b46102ed36600461303f565b610995565b6101b4610300366004612cc6565b610ac6565b34801561031157600080fd5b506101d6610320366004612b12565b610c48565b34801561033157600080fd5b50610345610340366004613085565b610ec8565b6040516101e093929190613355565b34801561036057600080fd5b5061037461036f366004612cf1565b610f94565b6040516101e0919061331c565b6101b461038f366004613085565b6110f5565b3480156103a057600080fd5b5061025b6103af366004613085565b6111da565b3480156103c057600080fd5b506101b46103cf366004613085565b611463565b3480156103e057600080fd5b506101b46103ef366004612c99565b611617565b34801561040057600080fd5b506104096116ee565b6040516101e09190613240565b34801561042257600080fd5b506101d6610431366004613005565b6117be565b34801561044257600080fd5b50610239610451366004613085565b6118c0565b34801561046257600080fd5b50610482610471366004612b4a565b63bc197c8160e01b95945050505050565b6040516001600160e01b031990911681526020016101e0565b3480156104a757600080fd5b506104bb6104b6366004612bf3565b6118f8565b6040516101e0929190613212565b3480156104d557600080fd5b506101b46104e4366004612cc6565b611e65565b3480156104f557600080fd5b50610209610504366004612b12565b6001600160a01b03918216600090815260016020908152604080832093909416825291909152205460ff1690565b34801561053e57600080fd5b5061048261054d366004612c33565b63f23a6e6160e01b95945050505050565b34801561056a57600080fd5b506101b4610579366004612c33565b611f19565b34801561058a57600080fd5b506101d6610599366004612ad3565b3360009081526006602090815260408083206001600160a01b03949094168352929052205490565b3480156105cd57600080fd5b506102396105dc366004613085565b611fa0565b60006001600160a01b0383166106525760405162461bcd60e51b815260206004820152602b60248201527f455243313135353a2062616c616e636520717565727920666f7220746865207a60448201526a65726f206164647265737360a81b60648201526084015b60405180910390fd5b506000908152602081815260408083206001600160a01b03949094168352929052205490565b600061068382612267565b92915050565b6060600280546106989061356b565b80601f01602080910402602001604051908101604052809291908181526020018280546106c49061356b565b80156107115780601f106106e657610100808354040283529160200191610711565b820191906000526020600020905b8154815290600101906020018083116106f457829003601f168201915b50505050509050919050565b60606003805480602002602001604051908101604052809291908181526020016000905b8282101561082857838290600052602060002090600302016040518060600160405290816000820180546107749061356b565b80601f01602080910402602001604051908101604052809291908181526020018280546107a09061356b565b80156107ed5780601f106107c2576101008083540402835291602001916107ed565b820191906000526020600020905b8154815290600101906020018083116107d057829003601f168201915b50505091835250506001828101546001600160a01b031660208084019190915260029093015460409092019190915291835292019101610741565b50505050905090565b61083a8161228c565b156108795760405162461bcd60e51b815260206004820152600f60248201526e43617465676f72792065786973747360881b6044820152606401610649565b6004805460018101825560009190915281516108bc917f8a35acfbc15ff81a39ae7d344fd709f28e8600b4aa8c65c6b64bfe7fe36bd19b0190602084019061295f565b50806040516108cb9190613153565b604051908190038120907f7b57dd1859191f834cc8922426168172411aa109848e6fae960407656e1ed2df90600090a250565b6001600160a01b03851633148061091a575061091a8533610504565b6109815760405162461bcd60e51b815260206004820152603260248201527f455243313135353a207472616e736665722063616c6c6572206973206e6f74206044820152711bdddb995c881b9bdc88185c1c1c9bdd995960721b6064820152608401610649565b61098e85858585856122ee565b5050505050565b61099e826124e7565b156109dd5760405162461bcd60e51b815260206004820152600f60248201526e436f6e74726163742065786973747360881b6044820152606401610649565b604080516060810182528481526001600160a01b038416602080830191909152918101839052600380546001810182556000829052825180519394919092027fc2575a0e9e593c00f959f8c92f12db2869c3395a3b0502d05e2516446f71f85b0192610a4c928492019061295f565b5060208201516001820180546001600160a01b0319166001600160a01b0392831617905560409283015160029092019190915590518291841690610a91908690613153565b604051908190038120907f664e79b1312b5eebaad7ecf8bbd9c8601ff521d0676f4141e5e2361b8232c4a790600090a4505050565b60055433906001600160a01b0384811691161415610ae357600092505b6040516370a0823160e01b81526001600160a01b0382811660048301528391908516906370a082319060240160206040518083038186803b158015610b2757600080fd5b505afa158015610b3b573d6000803e3d6000fd5b505050506040513d601f19601f82011682018060405250810190610b5f919061309d565b1015610b7d5760405162461bcd60e51b8152600401610649906133cb565b6001600160a01b03808216600090815260066020908152604080832093871683529290529081208054849290610bb49084906134eb565b90915550506040516323b872dd60e01b81526001600160a01b038281166004830152306024830152604482018490528416906323b872dd906064015b602060405180830381600087803b158015610c0a57600080fd5b505af1158015610c1e573d6000803e3d6000fd5b505050506040513d601f19601f82011682018060405250810190610c429190612fb1565b50505050565b604051632b90f36160e21b81526020600482015260116024820152703ab734b9bbb0b82b192937baba32b9181960791b60448201526000908190309063ae43cd849060640160206040518083038186803b158015610ca557600080fd5b505afa158015610cb9573d6000803e3d6000fd5b505050506040513d601f19601f82011682018060405250810190610cdd919061309d565b604051638fa76f0360e01b8152600481018290529091506000903090638fa76f039060240160006040518083038186803b158015610d1a57600080fd5b505afa158015610d2e573d6000803e3d6000fd5b505050506040513d6000823e601f3d908101601f19168201604052610d569190810190612dbd565b905060005b8151811015610ebf576000828281518110610d8657634e487b7160e01b600052603260045260246000fd5b60200260200101516020015190506000816001600160a01b031663c45a01556040518163ffffffff1660e01b815260040160206040518083038186803b158015610dcf57600080fd5b505afa158015610de3573d6000803e3d6000fd5b505050506040513d601f19601f82011682018060405250810190610e079190612af6565b60405163e6a4390560e01b81526001600160a01b038a81166004830152898116602483015291925060009183169063e6a439059060440160206040518083038186803b158015610e5657600080fd5b505afa158015610e6a573d6000803e3d6000fd5b505050506040513d601f19601f82011682018060405250810190610e8e9190612af6565b6001600160a01b031614610eaa5785610ea6816135f7565b9650505b50508080610eb7906135f7565b915050610d5b565b50505092915050565b60038181548110610ed857600080fd5b9060005260206000209060030201600091509050806000018054610efb9061356b565b80601f0160208091040260200160405190810160405280929190818152602001828054610f279061356b565b8015610f745780601f10610f4957610100808354040283529160200191610f74565b820191906000526020600020905b815481529060010190602001808311610f5757829003601f168201915b50505050600183015460029093015491926001600160a01b031691905083565b60608151835114610ff95760405162461bcd60e51b815260206004820152602960248201527f455243313135353a206163636f756e747320616e6420696473206c656e677468604482015268040dad2e6dac2e8c6d60bb1b6064820152608401610649565b600083516001600160401b0381111561102257634e487b7160e01b600052604160045260246000fd5b60405190808252806020026020018201604052801561104b578160200160208202803683370190505b50905060005b84518110156110ed576110b285828151811061107d57634e487b7160e01b600052603260045260246000fd5b60200260200101518583815181106110a557634e487b7160e01b600052603260045260246000fd5b60200260200101516105e1565b8282815181106110d257634e487b7160e01b600052603260045260246000fd5b60209081029190910101526110e6816135f7565b9050611051565b509392505050565b33600081318311156111195760405162461bcd60e51b8152600401610649906133cb565b823410156111395760405162461bcd60e51b8152600401610649906133cb565b6001600160a01b038083166000908152600660209081526040808320938516835292905290812080548592906111709084906134eb565b909155505060055460408051630d0e30db60e41b815290516001600160a01b039092169163d0e30db0913491600480830192600092919082900301818588803b1580156111bc57600080fd5b505af11580156111d0573d6000803e3d6000fd5b5050505050505050565b6003546060906000805b8282101561124657846003838154811061120e57634e487b7160e01b600052603260045260246000fd5b90600052602060002090600302016002015414156112345780611230816135f7565b9150505b8161123e816135f7565b9250506111e4565b806001600160401b0381111561126c57634e487b7160e01b600052604160045260246000fd5b6040519080825280602002602001820160405280156112ca57816020015b6112b760405180606001604052806060815260200160006001600160a01b03168152602001600081525090565b81526020019060019003908161128a5790505b50935060008092505b8383101561145a57818114156112e857611448565b856003848154811061130a57634e487b7160e01b600052603260045260246000fd5b9060005260206000209060030201600201541415611448576003838154811061134357634e487b7160e01b600052603260045260246000fd5b906000526020600020906003020160405180606001604052908160008201805461136c9061356b565b80601f01602080910402602001604051908101604052809291908181526020018280546113989061356b565b80156113e55780601f106113ba576101008083540402835291602001916113e5565b820191906000526020600020905b8154815290600101906020018083116113c857829003601f168201915b505050918352505060018201546001600160a01b03166020820152600290910154604090910152855186908390811061142e57634e487b7160e01b600052603260045260246000fd5b60200260200101819052508080611444906135f7565b9150505b82611452816135f7565b9350506112d3565b50505050919050565b3360008181526006602090815260408083208380529091528120548311156114e55760405162461bcd60e51b815260206004820152602f60248201527f4e6f7420656e6f7567682066756e647320696e20636f6e747261637420666f7260448201526e081e5bdd481dda5d1a191c985dd85b608a1b6064820152608401610649565b6001600160a01b0380831660009081526006602090815260408083209385168352929052908120805485929061151c908490613528565b9091555050600554604051632e1a7d4d60e01b8152600481018590526001600160a01b0390911690632e1a7d4d90602401600060405180830381600087803b15801561156757600080fd5b505af115801561157b573d6000803e3d6000fd5b505050506000826001600160a01b03168460405160006040518083038185875af1925050503d80600081146115cc576040519150601f19603f3d011682016040523d82523d6000602084013e6115d1565b606091505b5050905080610c425760405162461bcd60e51b815260206004820152601260248201527108cc2d2d8cac840e8de40e6cadcc8408aa8960731b6044820152606401610649565b336001600160a01b03831614156116825760405162461bcd60e51b815260206004820152602960248201527f455243313135353a2073657474696e6720617070726f76616c20737461747573604482015268103337b91039b2b63360b91b6064820152608401610649565b3360008181526001602090815260408083206001600160a01b03871680855290835292819020805460ff191686151590811790915590519081529192917f17307eab39ab6107e8899845ad3d59bd9653f200f220920489ca2b5937696c31910160405180910390a35050565b60606004805480602002602001604051908101604052809291908181526020016000905b828210156108285783829060005260206000200180546117319061356b565b80601f016020809104026020016040519081016040528092919081815260200182805461175d9061356b565b80156117aa5780601f1061177f576101008083540402835291602001916117aa565b820191906000526020600020905b81548152906001019060200180831161178d57829003601f168201915b505050505081526020019060010190611712565b600454600090815b818110156118b95761189b61188d600483815481106117f557634e487b7160e01b600052603260045260246000fd5b90600052602060002001805461180a9061356b565b80601f01602080910402602001604051908101604052809291908181526020018280546118369061356b565b80156118835780601f1061185857610100808354040283529160200191611883565b820191906000526020600020905b81548152906001019060200180831161186657829003601f168201915b505050505061204c565b6118968661204c565b612208565b156118a7579392505050565b806118b1816135f7565b9150506117c6565b5050919050565b6060600482815481106118e357634e487b7160e01b600052603260045260246000fd5b9060005260206000200180546106989061356b565b604051632b90f36160e21b81526020600482015260116024820152703ab734b9bbb0b82b192937baba32b9181960791b604482015260609081906000908190309063ae43cd849060640160206040518083038186803b15801561195a57600080fd5b505afa15801561196e573d6000803e3d6000fd5b505050506040513d601f19601f82011682018060405250810190611992919061309d565b604051638fa76f0360e01b8152600481018290529091506000903090638fa76f039060240160006040518083038186803b1580156119cf57600080fd5b505afa1580156119e3573d6000803e3d6000fd5b505050506040513d6000823e601f3d908101601f19168201604052611a0b9190810190612dbd565b6040516345a9146760e01b81526001600160a01b03808b16600483015289166024820152909150600090819030906345a914679060440160206040518083038186803b158015611a5a57600080fd5b505afa158015611a6e573d6000803e3d6000fd5b505050506040513d601f19601f82011682018060405250810190611a92919061309d565b60408051600280825260608201835292935060009290916020830190803683370190505090508a81600081518110611ada57634e487b7160e01b600052603260045260246000fd5b60200260200101906001600160a01b031690816001600160a01b0316815250508981600181518110611b1c57634e487b7160e01b600052603260045260246000fd5b60200260200101906001600160a01b031690816001600160a01b031681525050600080836001600160401b03811115611b6557634e487b7160e01b600052604160045260246000fd5b604051908082528060200260200182016040528015611b8e578160200160208202803683370190505b509950836001600160401b03811115611bb757634e487b7160e01b600052604160045260246000fd5b604051908082528060200260200182016040528015611be0578160200160208202803683370190505b509850600097505b83881015611e5557858881518110611c1057634e487b7160e01b600052603260045260246000fd5b6020026020010151602001519150816001600160a01b031663c45a01556040518163ffffffff1660e01b815260040160206040518083038186803b158015611c5757600080fd5b505afa158015611c6b573d6000803e3d6000fd5b505050506040513d601f19601f82011682018060405250810190611c8f9190612af6565b60405163e6a4390560e01b81526001600160a01b038f811660048301528e8116602483015291925060009183169063e6a439059060440160206040518083038186803b158015611cde57600080fd5b505afa158015611cf2573d6000803e3d6000fd5b505050506040513d601f19601f82011682018060405250810190611d169190612af6565b6001600160a01b031614611e435760405163d06ca61f60e01b81526000906001600160a01b0384169063d06ca61f90611d55908f908890600401613488565b60006040518083038186803b158015611d6d57600080fd5b505afa158015611d81573d6000803e3d6000fd5b505050506040513d6000823e601f3d908101601f19168201604052611da99190810190612f15565b9050828b8781518110611dcc57634e487b7160e01b600052603260045260246000fd5b60200260200101906001600160a01b031690816001600160a01b03168152505080600181518110611e0d57634e487b7160e01b600052603260045260246000fd5b60200260200101518a8781518110611e3557634e487b7160e01b600052603260045260246000fd5b602002602001018181525050505b87611e4d816135f7565b985050611be8565b5050505050505050935093915050565b3360008181526006602090815260408083206001600160a01b0387168452909152902054821115611ea85760405162461bcd60e51b8152600401610649906133cb565b6001600160a01b03808216600090815260066020908152604080832093871683529290529081208054849290611edf908490613528565b909155505060405163a9059cbb60e01b81526001600160a01b0382811660048301526024820184905284169063a9059cbb90604401610bf0565b6001600160a01b038516331480611f355750611f358533610504565b611f935760405162461bcd60e51b815260206004820152602960248201527f455243313135353a2063616c6c6572206973206e6f74206f776e6572206e6f7260448201526808185c1c1c9bdd995960ba1b6064820152608401610649565b61098e858585858561255b565b60048181548110611fb057600080fd5b906000526020600020016000915090508054611fcb9061356b565b80601f0160208091040260200160405190810160405280929190818152602001828054611ff79061356b565b80156120445780601f1061201957610100808354040283529160200191612044565b820191906000526020600020905b81548152906001019060200180831161202757829003601f168201915b505050505081565b60606000829050600081516001600160401b0381111561207c57634e487b7160e01b600052604160045260246000fd5b6040519080825280601f01601f1916602001820160405280156120a6576020820181803683370190505b50905060005b82518110156110ed5760418382815181106120d757634e487b7160e01b600052603260045260246000fd5b016020015160f81c108015906121155750605a83828151811061210a57634e487b7160e01b600052603260045260246000fd5b016020015160f81c11155b156121935782818151811061213a57634e487b7160e01b600052603260045260246000fd5b602001015160f81c60f81b60f81c60206121549190613503565b60f81b82828151811061217757634e487b7160e01b600052603260045260246000fd5b60200101906001600160f81b031916908160001a9053506121f6565b8281815181106121b357634e487b7160e01b600052603260045260246000fd5b602001015160f81c60f81b8282815181106121de57634e487b7160e01b600052603260045260246000fd5b60200101906001600160f81b031916908160001a9053505b80612200816135f7565b9150506120ac565b60008160405160200161221b9190613153565b60405160208183030381529060405280519060200120836040516020016122429190613153565b6040516020818303038152906040528051906020012014905092915050565b3b151590565b60006001600160e01b03198216630271189760e51b1480610683575061068382612681565b600454600090815b818110156122e4576122c361188d600483815481106117f557634e487b7160e01b600052603260045260246000fd5b156122d2575060019392505050565b806122dc816135f7565b915050612294565b5060009392505050565b81518351146123505760405162461bcd60e51b815260206004820152602860248201527f455243313135353a2069647320616e6420616d6f756e7473206c656e677468206044820152670dad2e6dac2e8c6d60c31b6064820152608401610649565b6001600160a01b0384166123765760405162461bcd60e51b8152600401610649906133f9565b3360005b84518110156124795760008582815181106123a557634e487b7160e01b600052603260045260246000fd5b6020026020010151905060008583815181106123d157634e487b7160e01b600052603260045260246000fd5b602090810291909101810151600084815280835260408082206001600160a01b038e1683529093529190912054909150818110156124215760405162461bcd60e51b81526004016106499061343e565b6000838152602081815260408083206001600160a01b038e8116855292528083208585039055908b1682528120805484929061245e9084906134eb565b9250508190555050505080612472906135f7565b905061237a565b50846001600160a01b0316866001600160a01b0316826001600160a01b03167f4a39dc06d4c0dbc64b70af90fd698a233a518aa5d07e595d983b8c0526c8f7fb87876040516124c992919061332f565b60405180910390a46124df8187878787876126d1565b505050505050565b600354600090815b818110156122e4576003818154811061251857634e487b7160e01b600052603260045260246000fd5b60009182526020909120600160039092020101546001600160a01b0385811691161415612549575060019392505050565b80612553816135f7565b9150506124ef565b6001600160a01b0384166125815760405162461bcd60e51b8152600401610649906133f9565b3361259a8187876125918861283c565b61098e8861283c565b6000848152602081815260408083206001600160a01b038a168452909152902054838110156125db5760405162461bcd60e51b81526004016106499061343e565b6000858152602081815260408083206001600160a01b038b81168552925280832087850390559088168252812080548692906126189084906134eb565b909155505060408051868152602081018690526001600160a01b03808916928a821692918616917fc3d58168c5ae7397731d063d5bbf3d657854427343f4c083240f7aacaa2d0f62910160405180910390a4612678828888888888612895565b50505050505050565b60006001600160e01b03198216636cdb3d1360e11b14806126b257506001600160e01b031982166303a24d0760e21b145b8061068357506301ffc9a760e01b6001600160e01b0319831614610683565b6001600160a01b0384163b156124df5760405163bc197c8160e01b81526001600160a01b0385169063bc197c8190612715908990899088908890889060040161316f565b602060405180830381600087803b15801561272f57600080fd5b505af192505050801561275f575060408051601f3d908101601f1916820190925261275c91810190612fe9565b60015b61280c5761276b61363e565b806308c379a014156127a55750612780613656565b8061278b57506127a7565b8060405162461bcd60e51b81526004016106499190613342565b505b60405162461bcd60e51b815260206004820152603460248201527f455243313135353a207472616e7366657220746f206e6f6e20455243313135356044820152732932b1b2b4bb32b91034b6b83632b6b2b73a32b960611b6064820152608401610649565b6001600160e01b0319811663bc197c8160e01b146126785760405162461bcd60e51b815260040161064990613383565b6040805160018082528183019092526060916000919060208083019080368337019050509050828160008151811061288457634e487b7160e01b600052603260045260246000fd5b602090810291909101015292915050565b6001600160a01b0384163b156124df5760405163f23a6e6160e01b81526001600160a01b0385169063f23a6e61906128d990899089908890889088906004016131cd565b602060405180830381600087803b1580156128f357600080fd5b505af1925050508015612923575060408051601f3d908101601f1916820190925261292091810190612fe9565b60015b61292f5761276b61363e565b6001600160e01b0319811663f23a6e6160e01b146126785760405162461bcd60e51b815260040161064990613383565b82805461296b9061356b565b90600052602060002090601f01602090048101928261298d57600085556129d3565b82601f106129a657805160ff19168380011785556129d3565b828001600101855582156129d3579182015b828111156129d35782518255916020019190600101906129b8565b506129df9291506129e3565b5090565b5b808211156129df57600081556001016129e4565b8051612a03816136df565b919050565b600082601f830112612a18578081fd5b81356020612a25826134a1565b604051612a3282826135cb565b8381528281019150858301600585901b87018401881015612a51578586fd5b855b85811015612a6f57813584529284019290840190600101612a53565b5090979650505050505050565b600082601f830112612a8c578081fd5b8135612a97816134c4565b604051612aa482826135cb565b828152856020848701011115612ab8578384fd5b82602086016020830137918201602001929092529392505050565b600060208284031215612ae4578081fd5b8135612aef816136df565b9392505050565b600060208284031215612b07578081fd5b8151612aef816136df565b60008060408385031215612b24578081fd5b8235612b2f816136df565b91506020830135612b3f816136df565b809150509250929050565b600080600080600060a08688031215612b61578081fd5b8535612b6c816136df565b94506020860135612b7c816136df565b935060408601356001600160401b0380821115612b97578283fd5b612ba389838a01612a08565b94506060880135915080821115612bb8578283fd5b612bc489838a01612a08565b93506080880135915080821115612bd9578283fd5b50612be688828901612a7c565b9150509295509295909350565b600080600060608486031215612c07578081fd5b8335612c12816136df565b92506020840135612c22816136df565b929592945050506040919091013590565b600080600080600060a08688031215612c4a578283fd5b8535612c55816136df565b94506020860135612c65816136df565b9350604086013592506060860135915060808601356001600160401b03811115612c8d578182fd5b612be688828901612a7c565b60008060408385031215612cab578182fd5b8235612cb6816136df565b91506020830135612b3f816136f7565b60008060408385031215612cd8578182fd5b8235612ce3816136df565b946020939093013593505050565b60008060408385031215612d03578182fd5b82356001600160401b0380821115612d19578384fd5b818501915085601f830112612d2c578384fd5b81356020612d39826134a1565b604051612d4682826135cb565b8381528281019150858301600585901b870184018b1015612d65578889fd5b8896505b84871015612d90578035612d7c816136df565b835260019690960195918301918301612d69565b5096505086013592505080821115612da6578283fd5b50612db385828601612a08565b9150509250929050565b600060208284031215612dce578081fd5b81516001600160401b0380821115612de4578283fd5b818401915084601f830112612df7578283fd5b8151612e02816134a1565b604051612e0f82826135cb565b809150828152602081019150602085018860208560051b8801011115612e33578687fd5b865b84811015612f0757815186811115612e4b578889fd5b87016060818c03601f19011215612e60578889fd5b604051612e6c816135a6565b602082015188811115612e7d578a8bfd5b8201603f81018d13612e8d578a8bfd5b6020810151612e9b816134c4565b604051612ea882826135cb565b8281528f6040848601011115612ebc578d8efd5b612ecd83602083016040870161353f565b845250612edf915050604083016129f8565b6020828101919091526060929092015160408201528552938401939190910190600101612e35565b509098975050505050505050565b60006020808385031215612f27578182fd5b82516001600160401b03811115612f3c578283fd5b8301601f81018513612f4c578283fd5b8051612f57816134a1565b604051612f6482826135cb565b8281528481019150838501600584901b85018601891015612f83578687fd5b8694505b83851015612fa5578051835260019490940193918501918501612f87565b50979650505050505050565b600060208284031215612fc2578081fd5b8151612aef816136f7565b600060208284031215612fde578081fd5b8135612aef81613705565b600060208284031215612ffa578081fd5b8151612aef81613705565b600060208284031215613016578081fd5b81356001600160401b0381111561302b578182fd5b61303784828501612a7c565b949350505050565b600080600060608486031215613053578081fd5b83356001600160401b03811115613068578182fd5b61307486828701612a7c565b9350506020840135612c22816136df565b600060208284031215613096578081fd5b5035919050565b6000602082840312156130ae578081fd5b5051919050565b6000815180845260208085019450808401835b838110156130ed5781516001600160a01b0316875295820195908201906001016130c8565b509495945050505050565b6000815180845260208085019450808401835b838110156130ed5781518752958201959082019060010161310b565b6000815180845261313f81602086016020860161353f565b601f01601f19169290920160200192915050565b6000825161316581846020870161353f565b9190910192915050565b6001600160a01b0386811682528516602082015260a06040820181905260009061319b908301866130f8565b82810360608401526131ad81866130f8565b905082810360808401526131c18185613127565b98975050505050505050565b6001600160a01b03868116825285166020820152604081018490526060810183905260a06080820181905260009061320790830184613127565b979650505050505050565b60408152600061322560408301856130b5565b828103602084015261323781856130f8565b95945050505050565b6000602080830181845280855180835260408601915060408160051b8701019250838701855b8281101561329457603f19888603018452613282858351613127565b94509285019290850190600101613266565b5092979650505050505050565b60006020808301818452808551808352604092508286019150828160051b870101848801865b83811015612f0757603f198984030185528151606081518186526132ed82870182613127565b838b01516001600160a01b0316878c0152928901519589019590955250948701949250908601906001016132c7565b602081526000612aef60208301846130f8565b60408152600061322560408301856130f8565b602081526000612aef6020830184613127565b6060815260006133686060830186613127565b6001600160a01b039490941660208301525060400152919050565b60208082526028908201527f455243313135353a204552433131353552656365697665722072656a656374656040820152676420746f6b656e7360c01b606082015260800190565b602080825260149082015273496e73756666696369656e742062616c616e636560601b604082015260600190565b60208082526025908201527f455243313135353a207472616e7366657220746f20746865207a65726f206164604082015264647265737360d81b606082015260800190565b6020808252602a908201527f455243313135353a20696e73756666696369656e742062616c616e636520666f60408201526939103a3930b739b332b960b11b606082015260800190565b82815260406020820152600061303760408301846130b5565b60006001600160401b038211156134ba576134ba613628565b5060051b60200190565b60006001600160401b038211156134dd576134dd613628565b50601f01601f191660200190565b600082198211156134fe576134fe613612565b500190565b600060ff821660ff84168060ff0382111561352057613520613612565b019392505050565b60008282101561353a5761353a613612565b500390565b60005b8381101561355a578181015183820152602001613542565b83811115610c425750506000910152565b600181811c9082168061357f57607f821691505b602082108114156135a057634e487b7160e01b600052602260045260246000fd5b50919050565b606081018181106001600160401b03821117156135c5576135c5613628565b60405250565b601f8201601f191681016001600160401b03811182821017156135f0576135f0613628565b6040525050565b600060001982141561360b5761360b613612565b5060010190565b634e487b7160e01b600052601160045260246000fd5b634e487b7160e01b600052604160045260246000fd5b600060033d111561365357600481823e5160e01c5b90565b600060443d10156136645790565b6040516003193d81016004833e81513d6001600160401b03816024840111818411171561369357505050505090565b82850191508151818111156136ab5750505050505090565b843d87010160208285010111156136c55750505050505090565b6136d4602082860101876135cb565b509095945050505050565b6001600160a01b03811681146136f457600080fd5b50565b80151581146136f457600080fd5b6001600160e01b0319811681146136f457600080fdfea26469706673582212202ea3e29dd7330e06231831c6e32535fdab8d3bac9c063b40c7e57a3eafd492f264736f6c6343000804003368747470733a2f2f67616d652e6578616d706c652f6170692f6974656d2f7b69647d2e6a736f6e",
  "linkReferences": {},
  "deployedLinkReferences": {}
}