{
  "_format": "hh-sol-artifact-1",
  "contractName": "FraktalDefiServices",
  "sourceName": "contracts/FraktalDefiServices.sol",
  "abi": [
    {
      "inputs": [
        {
          "internalType": "address",
          "name": "_weth",
          "type": "address"
        }
      ],
      "stateMutability": "nonpayable",
      "type": "constructor"
    },
    {
      "anonymous": false,
      "inputs": [
        {
          "indexed": true,
          "internalType": "address",
          "name": "previousOwner",
          "type": "address"
        },
        {
          "indexed": true,
          "internalType": "address",
          "name": "newOwner",
          "type": "address"
        }
      ],
      "name": "OwnershipTransferred",
      "type": "event"
    },
    {
      "anonymous": false,
      "inputs": [
        {
          "indexed": true,
          "internalType": "bytes32",
          "name": "role",
          "type": "bytes32"
        },
        {
          "indexed": true,
          "internalType": "bytes32",
          "name": "previousAdminRole",
          "type": "bytes32"
        },
        {
          "indexed": true,
          "internalType": "bytes32",
          "name": "newAdminRole",
          "type": "bytes32"
        }
      ],
      "name": "RoleAdminChanged",
      "type": "event"
    },
    {
      "anonymous": false,
      "inputs": [
        {
          "indexed": true,
          "internalType": "bytes32",
          "name": "role",
          "type": "bytes32"
        },
        {
          "indexed": true,
          "internalType": "address",
          "name": "account",
          "type": "address"
        },
        {
          "indexed": true,
          "internalType": "address",
          "name": "sender",
          "type": "address"
        }
      ],
      "name": "RoleGranted",
      "type": "event"
    },
    {
      "anonymous": false,
      "inputs": [
        {
          "indexed": true,
          "internalType": "bytes32",
          "name": "role",
          "type": "bytes32"
        },
        {
          "indexed": true,
          "internalType": "address",
          "name": "account",
          "type": "address"
        },
        {
          "indexed": true,
          "internalType": "address",
          "name": "sender",
          "type": "address"
        }
      ],
      "name": "RoleRevoked",
      "type": "event"
    },
    {
      "inputs": [],
      "name": "DEFAULT_ADMIN_ROLE",
      "outputs": [
        {
          "internalType": "bytes32",
          "name": "",
          "type": "bytes32"
        }
      ],
      "stateMutability": "view",
      "type": "function"
    },
    {
      "inputs": [],
      "name": "banker",
      "outputs": [
        {
          "internalType": "contract Banker",
          "name": "",
          "type": "address"
        }
      ],
      "stateMutability": "view",
      "type": "function"
    },
    {
      "inputs": [],
      "name": "dataStore",
      "outputs": [
        {
          "internalType": "contract DataStore",
          "name": "",
          "type": "address"
        }
      ],
      "stateMutability": "view",
      "type": "function"
    },
    {
      "inputs": [],
      "name": "fraktalDefiServicesToken",
      "outputs": [
        {
          "internalType": "contract FraktalDefiServicesToken",
          "name": "",
          "type": "address"
        }
      ],
      "stateMutability": "view",
      "type": "function"
    },
    {
      "inputs": [
        {
          "internalType": "bytes32",
          "name": "role",
          "type": "bytes32"
        }
      ],
      "name": "getRoleAdmin",
      "outputs": [
        {
          "internalType": "bytes32",
          "name": "",
          "type": "bytes32"
        }
      ],
      "stateMutability": "view",
      "type": "function"
    },
    {
      "inputs": [],
      "name": "governor",
      "outputs": [
        {
          "internalType": "contract FraktalDefiGovernor",
          "name": "",
          "type": "address"
        }
      ],
      "stateMutability": "view",
      "type": "function"
    },
    {
      "inputs": [
        {
          "internalType": "bytes32",
          "name": "role",
          "type": "bytes32"
        },
        {
          "internalType": "address",
          "name": "account",
          "type": "address"
        }
      ],
      "name": "grantRole",
      "outputs": [],
      "stateMutability": "nonpayable",
      "type": "function"
    },
    {
      "inputs": [
        {
          "internalType": "bytes32",
          "name": "role",
          "type": "bytes32"
        },
        {
          "internalType": "address",
          "name": "account",
          "type": "address"
        }
      ],
      "name": "hasRole",
      "outputs": [
        {
          "internalType": "bool",
          "name": "",
          "type": "bool"
        }
      ],
      "stateMutability": "view",
      "type": "function"
    },
    {
      "inputs": [],
      "name": "locker",
      "outputs": [
        {
          "internalType": "contract TimelockController",
          "name": "",
          "type": "address"
        }
      ],
      "stateMutability": "view",
      "type": "function"
    },
    {
      "inputs": [],
      "name": "owner",
      "outputs": [
        {
          "internalType": "address",
          "name": "",
          "type": "address"
        }
      ],
      "stateMutability": "view",
      "type": "function"
    },
    {
      "inputs": [],
      "name": "renounceOwnership",
      "outputs": [],
      "stateMutability": "nonpayable",
      "type": "function"
    },
    {
      "inputs": [
        {
          "internalType": "bytes32",
          "name": "role",
          "type": "bytes32"
        },
        {
          "internalType": "address",
          "name": "account",
          "type": "address"
        }
      ],
      "name": "renounceRole",
      "outputs": [],
      "stateMutability": "nonpayable",
      "type": "function"
    },
    {
      "inputs": [
        {
          "internalType": "bytes32",
          "name": "role",
          "type": "bytes32"
        },
        {
          "internalType": "address",
          "name": "account",
          "type": "address"
        }
      ],
      "name": "revokeRole",
      "outputs": [],
      "stateMutability": "nonpayable",
      "type": "function"
    },
    {
      "inputs": [
        {
          "internalType": "bytes4",
          "name": "interfaceId",
          "type": "bytes4"
        }
      ],
      "name": "supportsInterface",
      "outputs": [
        {
          "internalType": "bool",
          "name": "",
          "type": "bool"
        }
      ],
      "stateMutability": "view",
      "type": "function"
    },
    {
      "inputs": [
        {
          "internalType": "address",
          "name": "newOwner",
          "type": "address"
        }
      ],
      "name": "transferOwnership",
      "outputs": [],
      "stateMutability": "nonpayable",
      "type": "function"
    }
  ],
  "bytecode": "0x608060405234801561001057600080fd5b50604051610b03380380610b0383398101604081905261002f9161008e565b6100383361003e565b506100bc565b600080546001600160a01b038381166001600160a01b0319831681178455604051919092169283917f8be0079c531659141344cd1fd0a4f28419497f9722a3daafe3b4186f6b6457e09190a35050565b60006020828403121561009f578081fd5b81516001600160a01b03811681146100b5578182fd5b9392505050565b610a38806100cb6000396000f3fe608060405234801561001057600080fd5b50600436106100f55760003560e01c8063715018a611610097578063b3826ecb11610066578063b3826ecb14610201578063d547741f14610214578063d7b96d4e14610227578063f2fde38b1461023a57600080fd5b8063715018a6146101cd5780638da5cb5b146101d557806391d14854146101e6578063a217fddf146101f957600080fd5b8063248a9ca3116100d3578063248a9ca3146101605780632f2ff15d1461019257806336568abe146101a7578063660d0d67146101ba57600080fd5b806301ffc9a7146100fa5780630ab9db5b146101225780630c340a241461014d575b600080fd5b61010d61010836600461089e565b61024d565b60405190151581526020015b60405180910390f35b600254610135906001600160a01b031681565b6040516001600160a01b039091168152602001610119565b600454610135906001600160a01b031681565b61018461016e36600461085b565b6000908152600160208190526040909120015490565b604051908152602001610119565b6101a56101a0366004610873565b610284565b005b6101a56101b5366004610873565b6102b0565b600354610135906001600160a01b031681565b6101a5610333565b6000546001600160a01b0316610135565b61010d6101f4366004610873565b610399565b610184600081565b600554610135906001600160a01b031681565b6101a5610222366004610873565b6103c4565b600654610135906001600160a01b031681565b6101a5610248366004610841565b6103eb565b60006001600160e01b03198216637965db0b60e01b148061027e57506301ffc9a760e01b6001600160e01b03198316145b92915050565b600082815260016020819052604090912001546102a181336104b6565b6102ab838361051a565b505050565b6001600160a01b03811633146103255760405162461bcd60e51b815260206004820152602f60248201527f416363657373436f6e74726f6c3a2063616e206f6e6c792072656e6f756e636560448201526e103937b632b9903337b91039b2b63360891b60648201526084015b60405180910390fd5b61032f8282610585565b5050565b6000546001600160a01b0316331461038d5760405162461bcd60e51b815260206004820181905260248201527f4f776e61626c653a2063616c6c6572206973206e6f7420746865206f776e6572604482015260640161031c565b61039760006105ec565b565b60009182526001602090815260408084206001600160a01b0393909316845291905290205460ff1690565b600082815260016020819052604090912001546103e181336104b6565b6102ab8383610585565b6000546001600160a01b031633146104455760405162461bcd60e51b815260206004820181905260248201527f4f776e61626c653a2063616c6c6572206973206e6f7420746865206f776e6572604482015260640161031c565b6001600160a01b0381166104aa5760405162461bcd60e51b815260206004820152602660248201527f4f776e61626c653a206e6577206f776e657220697320746865207a65726f206160448201526564647265737360d01b606482015260840161031c565b6104b3816105ec565b50565b6104c08282610399565b61032f576104d8816001600160a01b0316601461063c565b6104e383602061063c565b6040516020016104f49291906108c6565b60408051601f198184030181529082905262461bcd60e51b825261031c9160040161093b565b6105248282610399565b61032f5760008281526001602081815260408084206001600160a01b0386168086529252808420805460ff19169093179092559051339285917f2f8788117e7eff1d82e926ec794901d17c78024a50270940304540a733656f0d9190a45050565b61058f8282610399565b1561032f5760008281526001602090815260408083206001600160a01b0385168085529252808320805460ff1916905551339285917ff6391f5c32d9c69d2a47ea670b442974b53935d1edc7fd64eb21e047a839171b9190a45050565b600080546001600160a01b038381166001600160a01b0319831681178455604051919092169283917f8be0079c531659141344cd1fd0a4f28419497f9722a3daafe3b4186f6b6457e09190a35050565b6060600061064b836002610986565b61065690600261096e565b67ffffffffffffffff81111561067c57634e487b7160e01b600052604160045260246000fd5b6040519080825280601f01601f1916602001820160405280156106a6576020820181803683370190505b509050600360fc1b816000815181106106cf57634e487b7160e01b600052603260045260246000fd5b60200101906001600160f81b031916908160001a905350600f60fb1b8160018151811061070c57634e487b7160e01b600052603260045260246000fd5b60200101906001600160f81b031916908160001a9053506000610730846002610986565b61073b90600161096e565b90505b60018111156107cf576f181899199a1a9b1b9c1cb0b131b232b360811b85600f166010811061077d57634e487b7160e01b600052603260045260246000fd5b1a60f81b8282815181106107a157634e487b7160e01b600052603260045260246000fd5b60200101906001600160f81b031916908160001a90535060049490941c936107c8816109d5565b905061073e565b50831561081e5760405162461bcd60e51b815260206004820181905260248201527f537472696e67733a20686578206c656e67746820696e73756666696369656e74604482015260640161031c565b9392505050565b80356001600160a01b038116811461083c57600080fd5b919050565b600060208284031215610852578081fd5b61081e82610825565b60006020828403121561086c578081fd5b5035919050565b60008060408385031215610885578081fd5b8235915061089560208401610825565b90509250929050565b6000602082840312156108af578081fd5b81356001600160e01b03198116811461081e578182fd5b7f416363657373436f6e74726f6c3a206163636f756e74200000000000000000008152600083516108fe8160178501602088016109a5565b7001034b99036b4b9b9b4b733903937b6329607d1b601791840191820152835161092f8160288401602088016109a5565b01602801949350505050565b602081526000825180602084015261095a8160408501602087016109a5565b601f01601f19169190910160400192915050565b60008219821115610981576109816109ec565b500190565b60008160001904831182151516156109a0576109a06109ec565b500290565b60005b838110156109c05781810151838201526020016109a8565b838111156109cf576000848401525b50505050565b6000816109e4576109e46109ec565b506000190190565b634e487b7160e01b600052601160045260246000fdfea264697066735822122017acb44099f1c978ec3227ce12894ec805163ed6150ea79a71f4bf9418a2f08b64736f6c63430008040033",
  "linkReferences": {},
  "deployedLinkReferences": {}
}