{
  "contractName": "FraktaFinancial",
  "abi": [
    {
      "inputs": [],
      "stateMutability": "nonpayable",
      "type": "constructor"
    },
    {
      "anonymous": false,
      "inputs": [
        {
          "indexed": true,
          "internalType": "string",
          "name": "_name",
          "type": "string"
        },
        {
          "indexed": true,
          "internalType": "address",
          "name": "_address",
          "type": "address"
        },
        {
          "indexed": true,
          "internalType": "uint256",
          "name": "_network",
          "type": "uint256"
        }
      ],
      "name": "AddedContract",
      "type": "event"
    },
    {
      "anonymous": false,
      "inputs": [
        {
          "indexed": true,
          "internalType": "string",
          "name": "_symbol",
          "type": "string"
        },
        {
          "indexed": true,
          "internalType": "address",
          "name": "_address",
          "type": "address"
        },
        {
          "indexed": false,
          "internalType": "uint256",
          "name": "_decimals",
          "type": "uint256"
        },
        {
          "indexed": true,
          "internalType": "uint256",
          "name": "_network",
          "type": "uint256"
        }
      ],
      "name": "AddedToken",
      "type": "event"
    },
    {
      "anonymous": false,
      "inputs": [
        {
          "indexed": true,
          "internalType": "address",
          "name": "_user",
          "type": "address"
        },
        {
          "indexed": true,
          "internalType": "uint256",
          "name": "_pid",
          "type": "uint256"
        }
      ],
      "name": "Harvest",
      "type": "event"
    },
    {
      "inputs": [],
      "name": "getOwner",
      "outputs": [
        {
          "internalType": "address",
          "name": "",
          "type": "address"
        }
      ],
      "stateMutability": "view",
      "type": "function",
      "constant": true
    },
    {
      "inputs": [],
      "name": "getAdmins",
      "outputs": [
        {
          "internalType": "address[]",
          "name": "",
          "type": "address[]"
        }
      ],
      "stateMutability": "view",
      "type": "function",
      "constant": true
    },
    {
      "inputs": [],
      "name": "getComptroller",
      "outputs": [
        {
          "internalType": "address",
          "name": "",
          "type": "address"
        }
      ],
      "stateMutability": "view",
      "type": "function",
      "constant": true
    },
    {
      "inputs": [
        {
          "internalType": "address",
          "name": "_newOwner",
          "type": "address"
        }
      ],
      "name": "transferOwner",
      "outputs": [
        {
          "internalType": "bool",
          "name": "_success",
          "type": "bool"
        }
      ],
      "stateMutability": "nonpayable",
      "type": "function"
    },
    {
      "inputs": [
        {
          "internalType": "address",
          "name": "_newAdmin",
          "type": "address"
        }
      ],
      "name": "addAdmin",
      "outputs": [
        {
          "internalType": "bool",
          "name": "",
          "type": "bool"
        }
      ],
      "stateMutability": "nonpayable",
      "type": "function"
    },
    {
      "inputs": [
        {
          "internalType": "address",
          "name": "_comptroller",
          "type": "address"
        }
      ],
      "name": "updateComptroller",
      "outputs": [],
      "stateMutability": "nonpayable",
      "type": "function"
    },
    {
      "inputs": [
        {
          "internalType": "string",
          "name": "_symbol",
          "type": "string"
        },
        {
          "internalType": "address",
          "name": "_address",
          "type": "address"
        },
        {
          "internalType": "uint256",
          "name": "_decimals",
          "type": "uint256"
        },
        {
          "internalType": "uint256",
          "name": "_network",
          "type": "uint256"
        }
      ],
      "name": "addToken",
      "outputs": [],
      "stateMutability": "nonpayable",
      "type": "function"
    },
    {
      "inputs": [
        {
          "internalType": "string",
          "name": "_name",
          "type": "string"
        },
        {
          "internalType": "address",
          "name": "_address",
          "type": "address"
        },
        {
          "internalType": "uint256",
          "name": "_network",
          "type": "uint256"
        }
      ],
      "name": "addContract",
      "outputs": [],
      "stateMutability": "nonpayable",
      "type": "function"
    },
    {
      "inputs": [
        {
          "internalType": "string",
          "name": "name",
          "type": "string"
        }
      ],
      "name": "getContractByName",
      "outputs": [
        {
          "internalType": "string",
          "name": "_name",
          "type": "string"
        },
        {
          "internalType": "address",
          "name": "_address",
          "type": "address"
        },
        {
          "internalType": "uint256",
          "name": "_network",
          "type": "uint256"
        }
      ],
      "stateMutability": "view",
      "type": "function",
      "constant": true
    },
    {
      "inputs": [
        {
          "internalType": "string",
          "name": "_symbol",
          "type": "string"
        }
      ],
      "name": "getToken",
      "outputs": [
        {
          "internalType": "string",
          "name": "symbol",
          "type": "string"
        },
        {
          "internalType": "address",
          "name": "_address",
          "type": "address"
        },
        {
          "internalType": "uint256",
          "name": "decimals",
          "type": "uint256"
        },
        {
          "internalType": "uint256",
          "name": "network",
          "type": "uint256"
        }
      ],
      "stateMutability": "nonpayable",
      "type": "function"
    },
    {
      "inputs": [
        {
          "internalType": "address",
          "name": "_farmer",
          "type": "address"
        },
        {
          "internalType": "address",
          "name": "_user",
          "type": "address"
        }
      ],
      "name": "getFarms",
      "outputs": [
        {
          "internalType": "uint256[]",
          "name": "",
          "type": "uint256[]"
        }
      ],
      "stateMutability": "view",
      "type": "function",
      "constant": true
    },
    {
      "inputs": [
        {
          "internalType": "address",
          "name": "_farmer",
          "type": "address"
        },
        {
          "internalType": "uint256",
          "name": "_pid",
          "type": "uint256"
        }
      ],
      "name": "harvest",
      "outputs": [],
      "stateMutability": "nonpayable",
      "type": "function"
    },
    {
      "inputs": [
        {
          "internalType": "address",
          "name": "_farmer",
          "type": "address"
        }
      ],
      "name": "harvestAll",
      "outputs": [],
      "stateMutability": "nonpayable",
      "type": "function"
    }
  ],
  "bytecode": "0x608060405234801561001057600080fd5b50600080546001600160a01b03191633179055611401806100326000396000f3fe608060405234801561001057600080fd5b50600436106100cf5760003560e01c8063699bdca91161008c578063893d20e811610066578063893d20e814610437578063a71eef1b1461043f578063c04a22fd14610465578063c1733f6814610493576100cf565b8063699bdca9146103c757806370480275146103ed57806379feab8714610413576100cf565b8063018ee9b7146100d457806323da782d1461010257806331ae450b1461018557806343054fbf146101dd5780634fb2e45d1461025a5780636435bb7314610294575b600080fd5b610100600480360360408110156100ea57600080fd5b506001600160a01b0381351690602001356105cd565b005b6101006004803603608081101561011857600080fd5b810190602081018135600160201b81111561013257600080fd5b82018360208201111561014457600080fd5b803590602001918460018302840111600160201b8311171561016557600080fd5b91935091506001600160a01b038135169060208101359060400135610662565b61018d610813565b60408051602080825283518183015283519192839290830191858101910280838360005b838110156101c95781810151838201526020016101b1565b505050509050019250505060405180910390f35b610100600480360360608110156101f357600080fd5b810190602081018135600160201b81111561020d57600080fd5b82018360208201111561021f57600080fd5b803590602001918460018302840111600160201b8311171561024057600080fd5b91935091506001600160a01b038135169060200135610875565b6102806004803603602081101561027057600080fd5b50356001600160a01b0316610a12565b604080519115158252519081900360200190f35b610338600480360360208110156102aa57600080fd5b810190602081018135600160201b8111156102c457600080fd5b8201836020820111156102d657600080fd5b803590602001918460018302840111600160201b831117156102f757600080fd5b91908080601f016020809104026020016040519081016040528093929190818152602001838380828437600092019190915250929550610a91945050505050565b6040518080602001846001600160a01b03168152602001838152602001828103825285818151815260200191508051906020019080838360005b8381101561038a578181015183820152602001610372565b50505050905090810190601f1680156103b75780820380516001836020036101000a031916815260200191505b5094505050505060405180910390f35b610100600480360360208110156103dd57600080fd5b50356001600160a01b0316610d24565b6102806004803603602081101561040357600080fd5b50356001600160a01b0316610db1565b61041b610ebb565b604080516001600160a01b039092168252519081900360200190f35b61041b610eca565b6101006004803603602081101561045557600080fd5b50356001600160a01b0316610ed9565b61018d6004803603604081101561047b57600080fd5b506001600160a01b0381358116916020013516610faf565b610537600480360360208110156104a957600080fd5b810190602081018135600160201b8111156104c357600080fd5b8201836020820111156104d557600080fd5b803590602001918460018302840111600160201b831117156104f657600080fd5b91908080601f0160208091040260200160405190810160405280939291908181526020018383808284376000920191909152509295506110ee945050505050565b6040518080602001856001600160a01b03168152602001848152602001838152602001828103825286818151815260200191508051906020019080838360005b8381101561058f578181015183820152602001610577565b50505050905090810190601f1680156105bc5780820380516001836020036101000a031916815260200191505b509550505050505060405180910390f35b6000829050806001600160a01b031663ae169a50836040518263ffffffff1660e01b815260040180828152602001915050600060405180830381600087803b15801561061857600080fd5b505af115801561062c573d6000803e3d6000fd5b50506040518492503391507fc9695243a805adb74c91f28311176c65b417e842d5699893cef56d18bfa48cba90600090a3505050565b6008546000905b808210156106e5576000828152600660205260409020600101546001600160a01b03868116911614156106da576040805162461bcd60e51b8152602060048201526014602482015273151bdad95b88185b1c9958591e481b1a5cdd195960621b604482015290519081900360640190fd5b600190910190610669565b604051806080016040528088888080601f01602080910402602001604051908101604052809392919081815260200183838082843760009201829052509385525050506001600160a01b0388166020808401919091526040808401899052606090930187905260085482526006815291902082518051919261076c92849290910190611338565b506020820151600182810180546001600160a01b0319166001600160a01b03938416179055604080850151600285015560609094015160039093019290925560088054909201909155905184918716908990899080838380828437604080519390910183900383208c845290519095507fac547ce6c944ea093e54050bfa8b6429e08756b67280e9802ff5ad771843a7fd945091829003602001925050a450505050505050565b6060600280548060200260200160405190810160405280929190818152602001828054801561086b57602002820191906000526020600020905b81546001600160a01b0316815260019091019060200180831161084d575b5050505050905090565b600954600090815b818310156108b9576000838152600560205260409020600101546001600160a01b03868116911614156108ae575060015b60019092019161087d565b8015610905576040805162461bcd60e51b81526020600482015260166024820152754164647265737320616c72656164792065786973747360501b604482015290519081900360640190fd5b604051806060016040528088888080601f01602080910402602001604051908101604052809392919081815260200183838082843760009201829052509385525050506001600160a01b038816602080840191909152604092830188905260095482526005815291902082518051919261098492849290910190611338565b506020820151600182810180546001600160a01b0319166001600160a01b03938416179055604093840151600290930192909255600980549092019091559051859187169089908990808383808284376040519201829003822094507f664e79b1312b5eebaad7ecf8bbd9c8601ff521d0676f4141e5e2361b8232c4a793506000925050a450505050505050565b600080546001600160a01b03163314610a6b576040805162461bcd60e51b81526020600482015260166024820152752ab730baba3437b934bd32b21030b1ba34b7b717171760511b604482015290519081900360640190fd5b50600080546001600160a01b0319166001600160a01b0392909216919091179055600190565b60606000806000806000600954905060008060095411610aed576040805162461bcd60e51b8152602060048201526012602482015271139bc818dbdb9d1c9858dd1cc8199bdd5b9960721b604482015290519081900360640190fd5b600092505b81831015610c1057876040516020018082805190602001908083835b60208310610b2d5780518252601f199092019160209182019101610b0e565b6001836020036101000a03801982511681845116808217855250505050505090500191505060405160208183030381529060405280519060200120600560008581526020019081526020016000206000016040516020018082805460018160011615610100020316600290048015610bdc5780601f10610bba576101008083540402835291820191610bdc565b820191906000526020600020905b815481529060010190602001808311610bc8575b5050915050604051602081830303815290604052805190602001201415610c0557600190508293505b600190920191610af2565b80610c57576040805162461bcd60e51b815260206004820152601260248201527110dbdb9d1c9858dd081b9bdd08199bdd5b9960721b604482015290519081900360640190fd5b60008481526005602090815260409182902080548351601f600260001961010060018616150201909316929092049182018490048402810184019094528084529091830182828015610cea5780601f10610cbf57610100808354040283529160200191610cea565b820191906000526020600020905b815481529060010190602001808311610ccd57829003601f168201915b5050506000968752505060056020526040909420600181015460029091015494996001600160a01b03909116985093965092945050505050565b6060610d308233610faf565b8051909150600081610d7e576040805162461bcd60e51b8152602060048201526012602482015271139bdd1a1a5b99c81d1bc81a185c9d995cdd60721b604482015290519081900360640190fd5b81811015610dab57610da384848381518110610d9657fe5b60200260200101516105cd565b600101610d7e565b50505050565b600254600090819081905b80821015610e0657336001600160a01b031660028381548110610ddb57fe5b6000918252602090912001546001600160a01b03161415610dfb57600192505b600190910190610dbc565b6000546001600160a01b0316331480610e1c5750825b610e63576040805162461bcd60e51b8152602060048201526013602482015272556e617574686f72697a65642061636365737360681b604482015290519081900360640190fd5b60028054600181810183556000929092527f405787fa12a823e0f2b7631cc41b3ba8828b3321ca811111fa75cd3aa3bb5ace0180546001600160a01b0388166001600160a01b03199091161790559350505050919050565b6003546001600160a01b031690565b6000546001600160a01b031690565b60025460009081905b80821015610f2c57336001600160a01b031660028381548110610f0157fe5b6000918252602090912001546001600160a01b03161415610f2157600192505b600190910190610ee2565b6000546001600160a01b0316331480610f425750825b610f89576040805162461bcd60e51b8152602060048201526013602482015272556e617574686f72697a65642061636365737360681b604482015290519081900360640190fd5b5050600380546001600160a01b0319166001600160a01b03939093169290921790915550565b606060008390506000816001600160a01b031663081e3eda6040518163ffffffff1660e01b815260040160206040518083038186803b158015610ff157600080fd5b505afa158015611005573d6000803e3d6000fd5b505050506040513d602081101561101b57600080fd5b5051905060006060815b838310156110e3576000856001600160a01b03166398969e82858a6040518363ffffffff1660e01b815260040180838152602001826001600160a01b031681526020019250505060206040518083038186803b15801561108457600080fd5b505afa158015611098573d6000803e3d6000fd5b505050506040513d60208110156110ae57600080fd5b5051905080156110d757838383815181106110c557fe5b60209081029190910101526001909101905b50600190920191611025565b509695505050505050565b6060600080600080600080600854905060005b8183101561121f57886040516020018082805190602001908083835b6020831061113c5780518252601f19909201916020918201910161111d565b6001836020036101000a038019825116818451168082178552505050505050905001915050604051602081830303815290604052805190602001206006600085815260200190815260200160002060000160405160200180828054600181600116156101000203166002900480156111eb5780601f106111c95761010080835404028352918201916111eb565b820191906000526020600020905b8154815290600101906020018083116111d7575b505091505060405160208183030381529060405280519060200120141561121457600190508293505b600190920191611101565b80611263576040805162461bcd60e51b815260206004820152600f60248201526e151bdad95b881b9bdd08199bdd5b99608a1b604482015290519081900360640190fd5b60008481526006602090815260409182902080548351601f6002600019610100600186161502019093169290920491820184900484028101840190945280845290918301828280156112f65780601f106112cb576101008083540402835291602001916112f6565b820191906000526020600020905b8154815290600101906020018083116112d957829003601f168201915b505050600096875250506006602052604090942060018101546002820154600390920154959b6001600160a01b039091169a5090985093965092945050505050565b828054600181600116156101000203166002900490600052602060002090601f016020900481019282601f1061137957805160ff19168380011785556113a6565b828001600101855582156113a6579182015b828111156113a657825182559160200191906001019061138b565b506113b29291506113b6565b5090565b5b808211156113b257600081556001016113b756fea264697066735822122069f1b1ceb3a757c262d528fe7536dad2a9da8804a3f9851ca5f9c8fd0d5175d664736f6c63430007000033",
  "immutableReferences": {},
  "source": "pragma solidity ^0.7.0;\n\ninterface IFarmer {\n  function migrate(uint256 _pid) external;\n  function poolLength() external view returns (uint256);\n  function massUpdatePools() external;\n  function updatePool(uint256 _pid) external;\n  function getMultiplier(uint256 _from, uint256 _to) external view returns (uint256);\n  function getPoolReward(uint256 _from, uint256 _to, uint256 _allocPoint) external view returns (uint256 forDev, uint256 forFarmer, uint256 forLP, uint256 forCom, uint256 forFounders);\n  function pendingReward(uint256 _pid, address _user) external view returns (uint256);\n  function claimReward(uint256 _pid) external;\n  function getGlobalAmount(address _user) external view returns(uint256);\n  function getGlobalRefAmount(address _user) external view returns(uint256);\n  function getTotalRefs(address _user) external view returns(uint256);\n  function getRefValueOf(address _user, address _user2) external view returns(uint256);\n  function deposit(uint256 _pid, uint256 _amount, address _ref) external;\n  function withdraw(uint256 _pid, uint256 _amount, address _ref) external;\n  function emergencyWithdraw(uint256 _pid) external;\n  function getNewRewardPerBlock(uint256 pid1) external view returns (uint256);\n  function userDelta(uint256 _pid) external view returns (uint256);\n}\n\ncontract FraktaFinancial {\n  event AddedContract(string indexed _name, address indexed _address, uint indexed _network);\n  event AddedToken(string indexed _symbol, address indexed _address, uint _decimals, uint indexed _network);\n  event Harvest(address indexed _user, uint indexed _pid);\n\n  struct Contract {\n    string _name;\n    address _address;\n    uint _network;\n  }\n  struct Token {\n    string _symbol;\n    address _address;\n    uint _decimals;\n    uint _network;\n  }\n\n  address owner;\n  address token;\n  address[] admins;\n  address comptroller;\n  \n  string[] exchnages;\n  mapping(uint => Contract) contracts;\n  mapping(uint => Token) tokens;\n  mapping(uint => string) networks;\n  \n  uint tokenLen;\n  uint contractLen;\n\n  constructor () public {\n    owner = msg.sender;\n  }\n  function getOwner() public view returns(address) {\n    return owner;\n  } \n  function getAdmins() public view returns(address[] memory) {\n    return admins;\n  } \n  function getComptroller() public view returns(address) {\n    return comptroller;\n  }\n  function transferOwner (address _newOwner) public onlyOwner() returns (bool _success) {\n    owner = _newOwner;\n    _success = true;\n  }\n\n  function addAdmin (address _newAdmin) public onlyAdmin() returns(bool) {\n    admins.push(_newAdmin);\n    return true;\n  }\n  // function addToken (string _symbol, address _address, uint _decimals, uint _network) public onlyAdmin () {\n  //   token = _token;\n  // }\n  function updateComptroller (address _comptroller) public onlyAdmin () {\n    comptroller = _comptroller;\n  }\n  function addToken (string calldata _symbol, address _address, uint _decimals, uint _network) public {\n    uint i;\n    uint len = tokenLen;\n\n    for (i = 0; i < len; i++) {\n      require(_address != tokens[i]._address, 'Token already listed');\n    }\n    tokens[tokenLen] = Token({\n      _address: _address,\n      _symbol: _symbol,\n      _decimals: _decimals,\n      _network: _network\n    });\n    tokenLen++;\n    emit AddedToken(_symbol, _address, _decimals, _network);\n  }\n  \n  function addContract (string calldata _name, address _address, uint _network) public {\n     uint i;\n    uint len = contractLen;\n    bool addressExists = false;\n\n    for (i = 0; i < len; i++) {\n      if(_address == contracts[i]._address) addressExists = true;\n    }\n    require(!addressExists, 'Address already exists');\n\n    contracts[contractLen] = Contract({\n      _address: _address,\n      _name: _name,\n      _network: _network\n    });\n    contractLen++;\n    emit AddedContract(_name, _address, _network);\n  }\n  function getContractByName (string memory name) public view returns(string memory _name, address _address, uint _network) {\n    uint _contract;\n    uint i;\n    uint len = contractLen;\n    bool hasContract = false;\n\n    require(contractLen > 0, 'No contracts found');\n    for (i = 0; i < len; i++) {\n      if (keccak256(abi.encodePacked(contracts[i]._name)) == keccak256(abi.encodePacked(name))) {\n        hasContract = true;\n        _contract = i;\n      }\n    }\n    require(hasContract, 'Contract not found');\n\n    _name = contracts[_contract]._name;\n    _address = contracts[_contract]._address;\n    _network = contracts[_contract]._network;\n  }\n  function getToken (string memory _symbol) public returns(string memory symbol, address _address, uint decimals, uint network) { \n    uint _tokenId;\n    uint i;\n    uint len = tokenLen;\n    bool hasToken = false;\n\n    for (i; i < len; i++) {\n      if (keccak256(abi.encodePacked(tokens[i]._symbol)) == keccak256(abi.encodePacked(_symbol))) {\n        hasToken = true;\n        _tokenId = i;\n      }\n\n    } \n    require(hasToken, 'Token not found');\n    symbol = tokens[_tokenId]._symbol;\n    _address = tokens[_tokenId]._address;\n    decimals = tokens[_tokenId]._decimals;\n    network = tokens[_tokenId]._network;\n  }\n\n  function getFarms (address _farmer, address _user) public view returns(uint[] memory) {\n    IFarmer farmer = IFarmer(_farmer);   \n    uint poolLen = farmer.poolLength();\n    uint i = 0;\n    uint[] memory farms;\n    uint farmCount;\n\n    for (i; i < poolLen; i++) {\n      uint pendingReward = farmer.pendingReward(i, _user);\n      if (pendingReward > 0) {\n        farms[farmCount] = i;\n        farmCount++;\n      }\n    }\n    return farms;\n  }\n\n  function harvest (address _farmer, uint _pid) public {\n    IFarmer farmer = IFarmer(_farmer);   \n    farmer.claimReward(_pid);\n    emit Harvest(msg.sender, _pid);\n  }\n\n  function harvestAll (address _farmer) public {\n    uint[] memory _farms = getFarms(_farmer, msg.sender);\n    uint len = _farms.length;\n    uint i = 0;\n    require(len > 0, 'Nothing to harvest');\n    for (i; i < len; i++) {\n      harvest(_farmer, _farms[i]);\n    }\n  }\n  ///////////////\n  // Modifiers //\n  ///////////////\n\n  modifier onlyOwner () {\n    require(\n      msg.sender == owner, \n      'Unauthorized action...'\n    );\n    _;\n  }\n\n   modifier onlyAdmin () {\n    bool isAdmin = false;\n    uint i;\n    uint len = admins.length;\n    for(i = 0; i < len; i++) {\n      if (admins[i] == msg.sender) {\n        isAdmin = true;\n      }\n    }\n    require(owner == msg.sender || isAdmin, 'Unauthorized access');\n    _;\n  }\n}",
  "sourcePath": "/home/node/app/contracts/FraktalFinancial.sol",
  "compiler": {
    "name": "solc",
    "version": "0.7.0+commit.9e61f92b.Emscripten.clang"
  },
  "schemaVersion": "3.3.4",
  "updatedAt": "2021-04-14T02:03:18.102Z",
  "networkType": "ethereum",
  "devdoc": {
    "kind": "dev",
    "methods": {},
    "version": 1
  },
  "userdoc": {
    "kind": "user",
    "methods": {},
    "version": 1
  }
}