{
  "_format": "hh-sol-artifact-1",
  "contractName": "FraktalDefiGovernor",
  "sourceName": "contracts/FraktalDefiGovernor.sol",
  "abi": [
    {
      "inputs": [
        {
          "internalType": "contract ERC20Votes",
          "name": "_token",
          "type": "address"
        },
        {
          "internalType": "contract TimelockController",
          "name": "_timelock",
          "type": "address"
        }
      ],
      "stateMutability": "nonpayable",
      "type": "constructor"
    },
    {
      "anonymous": false,
      "inputs": [
        {
          "indexed": false,
          "internalType": "uint256",
          "name": "proposalId",
          "type": "uint256"
        }
      ],
      "name": "ProposalCanceled",
      "type": "event"
    },
    {
      "anonymous": false,
      "inputs": [
        {
          "indexed": false,
          "internalType": "uint256",
          "name": "proposalId",
          "type": "uint256"
        },
        {
          "indexed": false,
          "internalType": "address",
          "name": "proposer",
          "type": "address"
        },
        {
          "indexed": false,
          "internalType": "address[]",
          "name": "targets",
          "type": "address[]"
        },
        {
          "indexed": false,
          "internalType": "uint256[]",
          "name": "values",
          "type": "uint256[]"
        },
        {
          "indexed": false,
          "internalType": "string[]",
          "name": "signatures",
          "type": "string[]"
        },
        {
          "indexed": false,
          "internalType": "bytes[]",
          "name": "calldatas",
          "type": "bytes[]"
        },
        {
          "indexed": false,
          "internalType": "uint256",
          "name": "startBlock",
          "type": "uint256"
        },
        {
          "indexed": false,
          "internalType": "uint256",
          "name": "endBlock",
          "type": "uint256"
        },
        {
          "indexed": false,
          "internalType": "string",
          "name": "description",
          "type": "string"
        }
      ],
      "name": "ProposalCreated",
      "type": "event"
    },
    {
      "anonymous": false,
      "inputs": [
        {
          "indexed": false,
          "internalType": "uint256",
          "name": "proposalId",
          "type": "uint256"
        }
      ],
      "name": "ProposalExecuted",
      "type": "event"
    },
    {
      "anonymous": false,
      "inputs": [
        {
          "indexed": false,
          "internalType": "uint256",
          "name": "proposalId",
          "type": "uint256"
        },
        {
          "indexed": false,
          "internalType": "uint256",
          "name": "eta",
          "type": "uint256"
        }
      ],
      "name": "ProposalQueued",
      "type": "event"
    },
    {
      "anonymous": false,
      "inputs": [
        {
          "indexed": false,
          "internalType": "uint256",
          "name": "oldQuorumNumerator",
          "type": "uint256"
        },
        {
          "indexed": false,
          "internalType": "uint256",
          "name": "newQuorumNumerator",
          "type": "uint256"
        }
      ],
      "name": "QuorumNumeratorUpdated",
      "type": "event"
    },
    {
      "anonymous": false,
      "inputs": [
        {
          "indexed": false,
          "internalType": "address",
          "name": "oldTimelock",
          "type": "address"
        },
        {
          "indexed": false,
          "internalType": "address",
          "name": "newTimelock",
          "type": "address"
        }
      ],
      "name": "TimelockChange",
      "type": "event"
    },
    {
      "anonymous": false,
      "inputs": [
        {
          "indexed": true,
          "internalType": "address",
          "name": "voter",
          "type": "address"
        },
        {
          "indexed": false,
          "internalType": "uint256",
          "name": "proposalId",
          "type": "uint256"
        },
        {
          "indexed": false,
          "internalType": "uint8",
          "name": "support",
          "type": "uint8"
        },
        {
          "indexed": false,
          "internalType": "uint256",
          "name": "weight",
          "type": "uint256"
        },
        {
          "indexed": false,
          "internalType": "string",
          "name": "reason",
          "type": "string"
        }
      ],
      "name": "VoteCast",
      "type": "event"
    },
    {
      "inputs": [],
      "name": "BALLOT_TYPEHASH",
      "outputs": [
        {
          "internalType": "bytes32",
          "name": "",
          "type": "bytes32"
        }
      ],
      "stateMutability": "view",
      "type": "function"
    },
    {
      "inputs": [],
      "name": "COUNTING_MODE",
      "outputs": [
        {
          "internalType": "string",
          "name": "",
          "type": "string"
        }
      ],
      "stateMutability": "pure",
      "type": "function"
    },
    {
      "inputs": [
        {
          "internalType": "uint256",
          "name": "proposalId",
          "type": "uint256"
        }
      ],
      "name": "cancel",
      "outputs": [],
      "stateMutability": "nonpayable",
      "type": "function"
    },
    {
      "inputs": [
        {
          "internalType": "uint256",
          "name": "proposalId",
          "type": "uint256"
        },
        {
          "internalType": "uint8",
          "name": "support",
          "type": "uint8"
        }
      ],
      "name": "castVote",
      "outputs": [
        {
          "internalType": "uint256",
          "name": "",
          "type": "uint256"
        }
      ],
      "stateMutability": "nonpayable",
      "type": "function"
    },
    {
      "inputs": [
        {
          "internalType": "uint256",
          "name": "proposalId",
          "type": "uint256"
        },
        {
          "internalType": "uint8",
          "name": "support",
          "type": "uint8"
        },
        {
          "internalType": "uint8",
          "name": "v",
          "type": "uint8"
        },
        {
          "internalType": "bytes32",
          "name": "r",
          "type": "bytes32"
        },
        {
          "internalType": "bytes32",
          "name": "s",
          "type": "bytes32"
        }
      ],
      "name": "castVoteBySig",
      "outputs": [
        {
          "internalType": "uint256",
          "name": "",
          "type": "uint256"
        }
      ],
      "stateMutability": "nonpayable",
      "type": "function"
    },
    {
      "inputs": [
        {
          "internalType": "uint256",
          "name": "proposalId",
          "type": "uint256"
        },
        {
          "internalType": "uint8",
          "name": "support",
          "type": "uint8"
        },
        {
          "internalType": "string",
          "name": "reason",
          "type": "string"
        }
      ],
      "name": "castVoteWithReason",
      "outputs": [
        {
          "internalType": "uint256",
          "name": "",
          "type": "uint256"
        }
      ],
      "stateMutability": "nonpayable",
      "type": "function"
    },
    {
      "inputs": [
        {
          "internalType": "address[]",
          "name": "targets",
          "type": "address[]"
        },
        {
          "internalType": "uint256[]",
          "name": "values",
          "type": "uint256[]"
        },
        {
          "internalType": "bytes[]",
          "name": "calldatas",
          "type": "bytes[]"
        },
        {
          "internalType": "bytes32",
          "name": "descriptionHash",
          "type": "bytes32"
        }
      ],
      "name": "execute",
      "outputs": [
        {
          "internalType": "uint256",
          "name": "",
          "type": "uint256"
        }
      ],
      "stateMutability": "payable",
      "type": "function"
    },
    {
      "inputs": [
        {
          "internalType": "uint256",
          "name": "proposalId",
          "type": "uint256"
        }
      ],
      "name": "execute",
      "outputs": [],
      "stateMutability": "payable",
      "type": "function"
    },
    {
      "inputs": [
        {
          "internalType": "uint256",
          "name": "proposalId",
          "type": "uint256"
        }
      ],
      "name": "getActions",
      "outputs": [
        {
          "internalType": "address[]",
          "name": "targets",
          "type": "address[]"
        },
        {
          "internalType": "uint256[]",
          "name": "values",
          "type": "uint256[]"
        },
        {
          "internalType": "string[]",
          "name": "signatures",
          "type": "string[]"
        },
        {
          "internalType": "bytes[]",
          "name": "calldatas",
          "type": "bytes[]"
        }
      ],
      "stateMutability": "view",
      "type": "function"
    },
    {
      "inputs": [
        {
          "internalType": "uint256",
          "name": "proposalId",
          "type": "uint256"
        },
        {
          "internalType": "address",
          "name": "voter",
          "type": "address"
        }
      ],
      "name": "getReceipt",
      "outputs": [
        {
          "components": [
            {
              "internalType": "bool",
              "name": "hasVoted",
              "type": "bool"
            },
            {
              "internalType": "uint8",
              "name": "support",
              "type": "uint8"
            },
            {
              "internalType": "uint96",
              "name": "votes",
              "type": "uint96"
            }
          ],
          "internalType": "struct IGovernorCompatibilityBravo.Receipt",
          "name": "",
          "type": "tuple"
        }
      ],
      "stateMutability": "view",
      "type": "function"
    },
    {
      "inputs": [
        {
          "internalType": "address",
          "name": "account",
          "type": "address"
        },
        {
          "internalType": "uint256",
          "name": "blockNumber",
          "type": "uint256"
        }
      ],
      "name": "getVotes",
      "outputs": [
        {
          "internalType": "uint256",
          "name": "",
          "type": "uint256"
        }
      ],
      "stateMutability": "view",
      "type": "function"
    },
    {
      "inputs": [
        {
          "internalType": "uint256",
          "name": "proposalId",
          "type": "uint256"
        },
        {
          "internalType": "address",
          "name": "account",
          "type": "address"
        }
      ],
      "name": "hasVoted",
      "outputs": [
        {
          "internalType": "bool",
          "name": "",
          "type": "bool"
        }
      ],
      "stateMutability": "view",
      "type": "function"
    },
    {
      "inputs": [
        {
          "internalType": "address[]",
          "name": "targets",
          "type": "address[]"
        },
        {
          "internalType": "uint256[]",
          "name": "values",
          "type": "uint256[]"
        },
        {
          "internalType": "bytes[]",
          "name": "calldatas",
          "type": "bytes[]"
        },
        {
          "internalType": "bytes32",
          "name": "descriptionHash",
          "type": "bytes32"
        }
      ],
      "name": "hashProposal",
      "outputs": [
        {
          "internalType": "uint256",
          "name": "",
          "type": "uint256"
        }
      ],
      "stateMutability": "pure",
      "type": "function"
    },
    {
      "inputs": [],
      "name": "name",
      "outputs": [
        {
          "internalType": "string",
          "name": "",
          "type": "string"
        }
      ],
      "stateMutability": "view",
      "type": "function"
    },
    {
      "inputs": [
        {
          "internalType": "uint256",
          "name": "proposalId",
          "type": "uint256"
        }
      ],
      "name": "proposalDeadline",
      "outputs": [
        {
          "internalType": "uint256",
          "name": "",
          "type": "uint256"
        }
      ],
      "stateMutability": "view",
      "type": "function"
    },
    {
      "inputs": [
        {
          "internalType": "uint256",
          "name": "proposalId",
          "type": "uint256"
        }
      ],
      "name": "proposalEta",
      "outputs": [
        {
          "internalType": "uint256",
          "name": "",
          "type": "uint256"
        }
      ],
      "stateMutability": "view",
      "type": "function"
    },
    {
      "inputs": [
        {
          "internalType": "uint256",
          "name": "proposalId",
          "type": "uint256"
        }
      ],
      "name": "proposalSnapshot",
      "outputs": [
        {
          "internalType": "uint256",
          "name": "",
          "type": "uint256"
        }
      ],
      "stateMutability": "view",
      "type": "function"
    },
    {
      "inputs": [],
      "name": "proposalThreshold",
      "outputs": [
        {
          "internalType": "uint256",
          "name": "",
          "type": "uint256"
        }
      ],
      "stateMutability": "pure",
      "type": "function"
    },
    {
      "inputs": [
        {
          "internalType": "uint256",
          "name": "proposalId",
          "type": "uint256"
        }
      ],
      "name": "proposals",
      "outputs": [
        {
          "internalType": "uint256",
          "name": "id",
          "type": "uint256"
        },
        {
          "internalType": "address",
          "name": "proposer",
          "type": "address"
        },
        {
          "internalType": "uint256",
          "name": "eta",
          "type": "uint256"
        },
        {
          "internalType": "uint256",
          "name": "startBlock",
          "type": "uint256"
        },
        {
          "internalType": "uint256",
          "name": "endBlock",
          "type": "uint256"
        },
        {
          "internalType": "uint256",
          "name": "forVotes",
          "type": "uint256"
        },
        {
          "internalType": "uint256",
          "name": "againstVotes",
          "type": "uint256"
        },
        {
          "internalType": "uint256",
          "name": "abstainVotes",
          "type": "uint256"
        },
        {
          "internalType": "bool",
          "name": "canceled",
          "type": "bool"
        },
        {
          "internalType": "bool",
          "name": "executed",
          "type": "bool"
        }
      ],
      "stateMutability": "view",
      "type": "function"
    },
    {
      "inputs": [
        {
          "internalType": "address[]",
          "name": "targets",
          "type": "address[]"
        },
        {
          "internalType": "uint256[]",
          "name": "values",
          "type": "uint256[]"
        },
        {
          "internalType": "bytes[]",
          "name": "calldatas",
          "type": "bytes[]"
        },
        {
          "internalType": "string",
          "name": "description",
          "type": "string"
        }
      ],
      "name": "propose",
      "outputs": [
        {
          "internalType": "uint256",
          "name": "",
          "type": "uint256"
        }
      ],
      "stateMutability": "nonpayable",
      "type": "function"
    },
    {
      "inputs": [
        {
          "internalType": "address[]",
          "name": "targets",
          "type": "address[]"
        },
        {
          "internalType": "uint256[]",
          "name": "values",
          "type": "uint256[]"
        },
        {
          "internalType": "string[]",
          "name": "signatures",
          "type": "string[]"
        },
        {
          "internalType": "bytes[]",
          "name": "calldatas",
          "type": "bytes[]"
        },
        {
          "internalType": "string",
          "name": "description",
          "type": "string"
        }
      ],
      "name": "propose",
      "outputs": [
        {
          "internalType": "uint256",
          "name": "",
          "type": "uint256"
        }
      ],
      "stateMutability": "nonpayable",
      "type": "function"
    },
    {
      "inputs": [
        {
          "internalType": "address[]",
          "name": "targets",
          "type": "address[]"
        },
        {
          "internalType": "uint256[]",
          "name": "values",
          "type": "uint256[]"
        },
        {
          "internalType": "bytes[]",
          "name": "calldatas",
          "type": "bytes[]"
        },
        {
          "internalType": "bytes32",
          "name": "descriptionHash",
          "type": "bytes32"
        }
      ],
      "name": "queue",
      "outputs": [
        {
          "internalType": "uint256",
          "name": "",
          "type": "uint256"
        }
      ],
      "stateMutability": "nonpayable",
      "type": "function"
    },
    {
      "inputs": [
        {
          "internalType": "uint256",
          "name": "proposalId",
          "type": "uint256"
        }
      ],
      "name": "queue",
      "outputs": [],
      "stateMutability": "nonpayable",
      "type": "function"
    },
    {
      "inputs": [
        {
          "internalType": "uint256",
          "name": "blockNumber",
          "type": "uint256"
        }
      ],
      "name": "quorum",
      "outputs": [
        {
          "internalType": "uint256",
          "name": "",
          "type": "uint256"
        }
      ],
      "stateMutability": "view",
      "type": "function"
    },
    {
      "inputs": [],
      "name": "quorumDenominator",
      "outputs": [
        {
          "internalType": "uint256",
          "name": "",
          "type": "uint256"
        }
      ],
      "stateMutability": "view",
      "type": "function"
    },
    {
      "inputs": [],
      "name": "quorumNumerator",
      "outputs": [
        {
          "internalType": "uint256",
          "name": "",
          "type": "uint256"
        }
      ],
      "stateMutability": "view",
      "type": "function"
    },
    {
      "inputs": [],
      "name": "quorumVotes",
      "outputs": [
        {
          "internalType": "uint256",
          "name": "",
          "type": "uint256"
        }
      ],
      "stateMutability": "view",
      "type": "function"
    },
    {
      "inputs": [
        {
          "internalType": "uint256",
          "name": "proposalId",
          "type": "uint256"
        }
      ],
      "name": "state",
      "outputs": [
        {
          "internalType": "enum IGovernor.ProposalState",
          "name": "",
          "type": "uint8"
        }
      ],
      "stateMutability": "view",
      "type": "function"
    },
    {
      "inputs": [
        {
          "internalType": "bytes4",
          "name": "interfaceId",
          "type": "bytes4"
        }
      ],
      "name": "supportsInterface",
      "outputs": [
        {
          "internalType": "bool",
          "name": "",
          "type": "bool"
        }
      ],
      "stateMutability": "view",
      "type": "function"
    },
    {
      "inputs": [],
      "name": "timelock",
      "outputs": [
        {
          "internalType": "address",
          "name": "",
          "type": "address"
        }
      ],
      "stateMutability": "view",
      "type": "function"
    },
    {
      "inputs": [],
      "name": "token",
      "outputs": [
        {
          "internalType": "contract ERC20Votes",
          "name": "",
          "type": "address"
        }
      ],
      "stateMutability": "view",
      "type": "function"
    },
    {
      "inputs": [
        {
          "internalType": "uint256",
          "name": "newQuorumNumerator",
          "type": "uint256"
        }
      ],
      "name": "updateQuorumNumerator",
      "outputs": [],
      "stateMutability": "nonpayable",
      "type": "function"
    },
    {
      "inputs": [
        {
          "internalType": "contract TimelockController",
          "name": "newTimelock",
          "type": "address"
        }
      ],
      "name": "updateTimelock",
      "outputs": [],
      "stateMutability": "nonpayable",
      "type": "function"
    },
    {
      "inputs": [],
      "name": "version",
      "outputs": [
        {
          "internalType": "string",
          "name": "",
          "type": "string"
        }
      ],
      "stateMutability": "view",
      "type": "function"
    },
    {
      "inputs": [],
      "name": "votingDelay",
      "outputs": [
        {
          "internalType": "uint256",
          "name": "",
          "type": "uint256"
        }
      ],
      "stateMutability": "pure",
      "type": "function"
    },
    {
      "inputs": [],
      "name": "votingPeriod",
      "outputs": [
        {
          "internalType": "uint256",
          "name": "",
          "type": "uint256"
        }
      ],
      "stateMutability": "pure",
      "type": "function"
    }
  ],
  "bytecode": "0x6101406040523480156200001257600080fd5b506040516200430c3803806200430c833981016040819052620000359162000344565b806004836040518060400160405280601381526020017f4672616b74616c44656669476f7665726e6f720000000000000000000000000081525080620000806200014d60201b60201c565b815160209283012081519183019190912060c082815260e08290524660a0818152604080517f8b73c3c69bb8fe3d512ecc4cf759cc79239f7b179b0ffacaa9a75d522b39400f8189018190528183019790975260608101959095526080808601939093523085830152805180860390920182529390920190925280519084012090526101005281516200011a91600091908401906200029e565b505060601b6001600160601b03191661012052620001388162000168565b50620001448162000235565b505050620003d8565b6040805180820190915260018152603160f81b602082015290565b6064811115620001f05760405162461bcd60e51b815260206004820152604360248201527f476f7665726e6f72566f74657351756f72756d4672616374696f6e3a2071756f60448201527f72756d4e756d657261746f72206f7665722071756f72756d44656e6f6d696e616064820152623a37b960e91b608482015260a40160405180910390fd5b600380549082905560408051828152602081018490527f0553476bf02ef2726e8ce5ced78d63e26e602e4a2257b1f559418e24b4633997910160405180910390a15050565b600454604080516001600160a01b03928316815291831660208301527f08f74ea46ef7894f65eabfb5e6e695de773a000b47c529ab559178069b226401910160405180910390a1600480546001600160a01b0319166001600160a01b0392909216919091179055565b828054620002ac9062000382565b90600052602060002090601f016020900481019282620002d057600085556200031b565b82601f10620002eb57805160ff19168380011785556200031b565b828001600101855582156200031b579182015b828111156200031b578251825591602001919060010190620002fe565b50620003299291506200032d565b5090565b5b808211156200032957600081556001016200032e565b6000806040838503121562000357578182fd5b82516200036481620003bf565b60208401519092506200037781620003bf565b809150509250929050565b600181811c908216806200039757607f821691505b60208210811415620003b957634e487b7160e01b600052602260045260246000fd5b50919050565b6001600160a01b0381168114620003d557600080fd5b50565b60805160a05160c05160e051610100516101205160601c613ed362000439600039600081816107d5015281816121c70152612260015260006123f4015260006124430152600061241e015260006123a2015260006123cb0152613ed36000f3fe60806040526004361061020f5760003560e01c80637d5e81e211610118578063da95691a116100a0578063e23a9a521161006f578063e23a9a52146106b9578063eb9019d414610783578063f8ce560a146107a3578063fc0c546a146107c3578063fe0d94c1146107f757600080fd5b8063da95691a146105ff578063dd4e2ba51461061f578063ddf0b00914610665578063deaaa7cc1461068557600080fd5b8063ab58fb8e116100e7578063ab58fb8e14610559578063b58131b014610579578063c01f9e371461058d578063c59057e4146105ad578063d33219b4146105cd57600080fd5b80637d5e81e2146104f057806397c3d33414610510578063a7713a7014610524578063a890c9101461053957600080fd5b8063328dd9821161019b57806340e58ee51161016a57806340e58ee51461041c578063438596321461043c57806354fd4d501461048657806356781388146104b05780637b3c71d3146104d057600080fd5b8063328dd9821461038a5780633932abb1146103ba5780633bccf4fd146103cf5780633e4f49e6146103ef57600080fd5b806306fdde03116101e257806306fdde0314610300578063160cbed71461032257806324bc1a64146103425780632656227d146103575780632d63f6931461036a57600080fd5b8063013cf08b1461021457806301ffc9a71461028f57806302a251a3146102bf57806306f3f9e6146102de575b600080fd5b34801561022057600080fd5b5061023461022f3660046137dc565b61080a565b604080519a8b526001600160a01b0390991660208b0152978901969096526060880194909452608087019290925260a086015260c085015260e084015215156101008301521515610120820152610140015b60405180910390f35b34801561029b57600080fd5b506102af6102aa366004613798565b6108cf565b6040519015158152602001610286565b3480156102cb57600080fd5b5061b3cb5b604051908152602001610286565b3480156102ea57600080fd5b506102fe6102f93660046137dc565b6108e0565b005b34801561030c57600080fd5b50610315610954565b6040516102869190613b68565b34801561032e57600080fd5b506102d061033d366004613563565b6109e6565b34801561034e57600080fd5b506102d0610c1d565b6102d0610365366004613563565b610c32565b34801561037657600080fd5b506102d06103853660046137dc565b610d21565b34801561039657600080fd5b506103aa6103a53660046137dc565b610d58565b6040516102869493929190613b1b565b3480156103c657600080fd5b506119af6102d0565b3480156103db57600080fd5b506102d06103ea3660046138cf565b610fe9565b3480156103fb57600080fd5b5061040f61040a3660046137dc565b61107d565b6040516102869190613b7b565b34801561042857600080fd5b506102fe6104373660046137dc565b611088565b34801561044857600080fd5b506102af6104573660046137f4565b60008281526002602090815260408083206001600160a01b038516845260080190915290205460ff1692915050565b34801561049257600080fd5b506040805180820190915260018152603160f81b6020820152610315565b3480156104bc57600080fd5b506102d06104cb366004613823565b61139a565b3480156104dc57600080fd5b506102d06104eb36600461384e565b6113c3565b3480156104fc57600080fd5b506102d061050b3660046135ee565b611415565b34801561051c57600080fd5b5060646102d0565b34801561053057600080fd5b506003546102d0565b34801561054557600080fd5b506102fe6105543660046137c0565b61142c565b34801561056557600080fd5b506102d06105743660046137dc565b611498565b34801561058557600080fd5b5060006102d0565b34801561059957600080fd5b506102d06105a83660046137dc565b61153c565b3480156105b957600080fd5b506102d06105c8366004613563565b61156b565b3480156105d957600080fd5b506004546001600160a01b03165b6040516001600160a01b039091168152602001610286565b34801561060b57600080fd5b506102d061061a366004613695565b6115a5565b34801561062b57600080fd5b5060408051808201909152601a81527f737570706f72743d627261766f2671756f72756d3d627261766f0000000000006020820152610315565b34801561067157600080fd5b506102fe6106803660046137dc565b6115ca565b34801561069157600080fd5b506102d07f150214d74d59b7d1e90c73fc22ef3d991dd0a76b046543d4d80ab92d2a50328f81565b3480156106c557600080fd5b506107536106d43660046137f4565b60408051606081018252600080825260208201819052918101919091525060009182526002602090815260408084206001600160a01b0393909316845260089092018152918190208151606081018352905460ff8082161515835261010082041693820193909352620100009092046001600160601b03169082015290565b6040805182511515815260208084015160ff1690820152918101516001600160601b031690820152606001610286565b34801561078f57600080fd5b506102d061079e366004613538565b611838565b3480156107af57600080fd5b506102d06107be3660046137dc565b611844565b3480156107cf57600080fd5b506105e77f000000000000000000000000000000000000000000000000000000000000000081565b6102fe6108053660046137dc565b61184f565b806000808080808080808061081e8a611498565b97506108298b610d21565b96506108348b61153c565b60008c815260026020526040812080546005820154600683015460078401546001600160a01b039093169e50949a5098509296509194506108748d61107d565b9050600281600781111561089857634e487b7160e01b600052602160045260246000fd5b14935060078160078111156108bd57634e487b7160e01b600052602160045260246000fd5b14925050509193959799509193959799565b60006108da82611abd565b92915050565b6108e8611ae2565b6001600160a01b0316336001600160a01b0316146109485760405162461bcd60e51b8152602060048201526018602482015277476f7665726e6f723a206f6e6c79476f7665726e616e636560401b60448201526064015b60405180910390fd5b61095181611af6565b50565b60606000805461096390613e0c565b80601f016020809104026020016040519081016040528092919081815260200182805461098f90613e0c565b80156109dc5780601f106109b1576101008083540402835291602001916109dc565b820191906000526020600020905b8154815290600101906020018083116109bf57829003601f168201915b5050505050905090565b6000806109f58686868661156b565b90506004610a028261107d565b6007811115610a2157634e487b7160e01b600052602160045260246000fd5b14610a3e5760405162461bcd60e51b815260040161093f90613be4565b6000600460009054906101000a90046001600160a01b03166001600160a01b031663f27a0c926040518163ffffffff1660e01b815260040160206040518083038186803b158015610a8e57600080fd5b505afa158015610aa2573d6000803e3d6000fd5b505050506040513d601f19601f82011682018060405250810190610ac69190613780565b6004805460405163b1c5f42760e01b81529293506001600160a01b03169163b1c5f42791610aff918b918b918b916000918c9101613a75565b60206040518083038186803b158015610b1757600080fd5b505afa158015610b2b573d6000803e3d6000fd5b505050506040513d601f19601f82011682018060405250810190610b4f9190613780565b600083815260056020526040808220929092556004805492516308f2a0bb60e41b81526001600160a01b0390931692638f2a0bb092610b9a928c928c928c9290918c918a9101613ac3565b600060405180830381600087803b158015610bb457600080fd5b505af1158015610bc8573d6000803e3d6000fd5b505050507f9a2e42fd6722813d69113e7d0079d3d940171428df7373df9c7f7617cfda2892828242610bfa9190613d43565b604080519283526020830191909152015b60405180910390a15095945050505050565b6000610c2d6107be600143613dc5565b905090565b600080610c418686868661156b565b90506000610c4e8261107d565b90506004816007811115610c7257634e487b7160e01b600052602160045260246000fd5b1480610c9d57506005816007811115610c9b57634e487b7160e01b600052602160045260246000fd5b145b610cb95760405162461bcd60e51b815260040161093f90613be4565b600082815260016020818152604092839020600201805460ff191690921790915590518381527f712ae1383f79ac853f8d882153778e0260ef8f03b504e2866e0593e04d2b291f910160405180910390a1610d178288888888611bbe565b5095945050505050565b60008181526001602090815260408083208151928301909152546001600160401b0316908190525b6001600160401b031692915050565b60608060608060006002600087815260200190815260200160002090508060010181600201826003018360040183805480602002602001604051908101604052809291908181526020018280548015610dda57602002820191906000526020600020905b81546001600160a01b03168152600190910190602001808311610dbc575b5050505050935082805480602002602001604051908101604052809291908181526020018280548015610e2c57602002820191906000526020600020905b815481526020019060010190808311610e18575b5050505050925081805480602002602001604051908101604052809291908181526020016000905b82821015610f00578382906000526020600020018054610e7390613e0c565b80601f0160208091040260200160405190810160405280929190818152602001828054610e9f90613e0c565b8015610eec5780601f10610ec157610100808354040283529160200191610eec565b820191906000526020600020905b815481529060010190602001808311610ecf57829003601f168201915b505050505081526020019060010190610e54565b50505050915080805480602002602001604051908101604052809291908181526020016000905b82821015610fd3578382906000526020600020018054610f4690613e0c565b80601f0160208091040260200160405190810160405280929190818152602001828054610f7290613e0c565b8015610fbf5780601f10610f9457610100808354040283529160200191610fbf565b820191906000526020600020905b815481529060010190602001808311610fa257829003601f168201915b505050505081526020019060010190610f27565b5050505090509450945094509450509193509193565b604080517f150214d74d59b7d1e90c73fc22ef3d991dd0a76b046543d4d80ab92d2a50328f602082015290810186905260ff8516606082015260009081906110559061104d9060800160405160208183030381529060405280519060200120611bd2565b868686611c20565b905061107287828860405180602001604052806000815250611c3e565b979650505050505050565b60006108da82611d57565b600081815260026020526040902080546001600160a01b0316336001600160a01b031614806110d05750600081546110ce906001600160a01b031661079e600143613dc5565b105b61112c5760405162461bcd60e51b815260206004820152602760248201527f476f7665726e6f72427261766f3a2070726f706f7365722061626f76652074686044820152661c995cda1bdb1960ca1b606482015260840161093f565b6113958160010180548060200260200160405190810160405280929190818152602001828054801561118757602002820191906000526020600020905b81546001600160a01b03168152600190910190602001808311611169575b5050505050826002018054806020026020016040519081016040528092919081815260200182805480156111da57602002820191906000526020600020905b8154815260200190600101908083116111c6575b505050505061138b84600301805480602002602001604051908101604052809291908181526020016000905b828210156112b257838290600052602060002001805461122590613e0c565b80601f016020809104026020016040519081016040528092919081815260200182805461125190613e0c565b801561129e5780601f106112735761010080835404028352916020019161129e565b820191906000526020600020905b81548152906001019060200180831161128157829003601f168201915b505050505081526020019060010190611206565b50505060048701805460408051602080840282018101909252828152935060009084015b828210156113825783829060005260206000200180546112f590613e0c565b80601f016020809104026020016040519081016040528092919081815260200182805461132190613e0c565b801561136e5780601f106113435761010080835404028352916020019161136e565b820191906000526020600020905b81548152906001019060200180831161135157829003601f168201915b5050505050815260200190600101906112d6565b50505050611e40565b8460090154611ff4565b505050565b6000803390506113bb84828560405180602001604052806000815250611c3e565b949350505050565b60008033905061140b86828787878080601f016020809104026020016040519081016040528093929190818152602001838380828437600092019190915250611c3e92505050565b9695505050505050565b600061142385858585612002565b95945050505050565b611434611ae2565b6001600160a01b0316336001600160a01b03161461148f5760405162461bcd60e51b8152602060048201526018602482015277476f7665726e6f723a206f6e6c79476f7665726e616e636560401b604482015260640161093f565b61095181612078565b6004805460008381526005602052604080822054905163d45c443560e01b8152938401529182916001600160a01b03169063d45c44359060240160206040518083038186803b1580156114ea57600080fd5b505afa1580156114fe573d6000803e3d6000fd5b505050506040513d601f19601f820116820180604052508101906115229190613780565b9050806001146115325780611535565b60005b9392505050565b60008181526001602081815260408084208151928301909152909101546001600160401b031690819052610d49565b6000848484846040516020016115849493929190613a2a565b60408051601f19818403018152919052805160209091012095945050505050565b60006115b53387878787876120e1565b61140b86866115c48787611e40565b85611415565b60008181526002602090815260409182902060018101805484518185028101850190955280855291936113959390929083018282801561163357602002820191906000526020600020905b81546001600160a01b03168152600190910190602001808311611615575b50505050508260020180548060200260200160405190810160405280929190818152602001828054801561168657602002820191906000526020600020905b815481526020019060010190808311611672575b505050505061182e84600301805480602002602001604051908101604052809291908181526020016000905b8282101561175e5783829060005260206000200180546116d190613e0c565b80601f01602080910402602001604051908101604052809291908181526020018280546116fd90613e0c565b801561174a5780601f1061171f5761010080835404028352916020019161174a565b820191906000526020600020905b81548152906001019060200180831161172d57829003601f168201915b5050505050815260200190600101906116b2565b50505060048701805460408051602080840282018101909252828152935060009084015b828210156113825783829060005260206000200180546117a190613e0c565b80601f01602080910402602001604051908101604052809291908181526020018280546117cd90613e0c565b801561181a5780601f106117ef5761010080835404028352916020019161181a565b820191906000526020600020905b8154815290600101906020018083116117fd57829003601f168201915b505050505081526020019060010190611782565b84600901546109e6565b6000611535838361219e565b60006108da82612243565b6000818152600260209081526040918290206001810180548451818502810185019095528085529193611395939092908301828280156118b857602002820191906000526020600020905b81546001600160a01b0316815260019091019060200180831161189a575b50505050508260020180548060200260200160405190810160405280929190818152602001828054801561190b57602002820191906000526020600020905b8154815260200190600101908083116118f7575b5050505050611ab384600301805480602002602001604051908101604052809291908181526020016000905b828210156119e357838290600052602060002001805461195690613e0c565b80601f016020809104026020016040519081016040528092919081815260200182805461198290613e0c565b80156119cf5780601f106119a4576101008083540402835291602001916119cf565b820191906000526020600020905b8154815290600101906020018083116119b257829003601f168201915b505050505081526020019060010190611937565b50505060048701805460408051602080840282018101909252828152935060009084015b82821015611382578382906000526020600020018054611a2690613e0c565b80601f0160208091040260200160405190810160405280929190818152602001828054611a5290613e0c565b8015611a9f5780601f10611a7457610100808354040283529160200191611a9f565b820191906000526020600020905b815481529060010190602001808311611a8257829003601f168201915b505050505081526020019060010190611a07565b8460090154610c32565b60006001600160e01b03198216636e665ced60e01b14806108da57506108da826122f6565b6000610c2d6004546001600160a01b031690565b6064811115611b795760405162461bcd60e51b815260206004820152604360248201527f476f7665726e6f72566f74657351756f72756d4672616374696f6e3a2071756f60448201527f72756d4e756d657261746f72206f7665722071756f72756d44656e6f6d696e616064820152623a37b960e91b608482015260a40161093f565b600380549082905560408051828152602081018490527f0553476bf02ef2726e8ce5ced78d63e26e602e4a2257b1f559418e24b4633997910160405180910390a15050565b611bcb858585858561232b565b5050505050565b60006108da611bdf61239e565b8360405161190160f01b6020820152602281018390526042810182905260009060620160405160208183030381529060405280519060200120905092915050565b6000806000611c3187878787612491565b91509150610d178161257e565b6000848152600160208190526040822090611c588761107d565b6007811115611c7757634e487b7160e01b600052602160045260246000fd5b14611cd05760405162461bcd60e51b815260206004820152602360248201527f476f7665726e6f723a20766f7465206e6f742063757272656e746c792061637460448201526269766560e81b606482015260840161093f565b604080516020810190915281546001600160401b031690819052600090611cf8908790611838565b9050611d068787878461277f565b856001600160a01b03167fb8e138887d0aa13bab447e82de9d5c1777041ecd21ca36ba824ff1e6c07ddda488878488604051611d459493929190613cc8565b60405180910390a29695505050505050565b600080611d6383612924565b90506004816007811115611d8757634e487b7160e01b600052602160045260246000fd5b14611d925792915050565b60008381526005602052604090205480611dad575092915050565b60048054604051632ab0f52960e01b81529182018390526001600160a01b031690632ab0f5299060240160206040518083038186803b158015611def57600080fd5b505afa158015611e03573d6000803e3d6000fd5b505050506040513d601f19601f82011682018060405250810190611e279190613760565b15611e36575060079392505050565b5060059392505050565b6060600082516001600160401b03811115611e6b57634e487b7160e01b600052604160045260246000fd5b604051908082528060200260200182016040528015611e9e57816020015b6060815260200190600190039081611e895790505b50905060005b8451811015611fec57848181518110611ecd57634e487b7160e01b600052603260045260246000fd5b602002602001015151600014611f8757848181518110611efd57634e487b7160e01b600052603260045260246000fd5b6020026020010151848281518110611f2557634e487b7160e01b600052603260045260246000fd5b6020026020010151604051602401611f3d9190613b68565b60408051601f198184030181529082905291611f5891613a0e565b6040519081900390206020820180516001600160e01b03166001600160e01b0319909216919091179052611fb0565b838181518110611fa757634e487b7160e01b600052603260045260246000fd5b60200260200101515b828281518110611fd057634e487b7160e01b600052603260045260246000fd5b602002602001018190525080611fe590613e41565b9050611ea4565b509392505050565b600061142385858585612a8a565b600061206c33868686516001600160401b0381111561203157634e487b7160e01b600052604160045260246000fd5b60405190808252806020026020018201604052801561206457816020015b606081526020019060019003908161204f5790505b5087876120e1565b61142385858585612b32565b600454604080516001600160a01b03928316815291831660208301527f08f74ea46ef7894f65eabfb5e6e695de773a000b47c529ab559178069b226401910160405180910390a1600480546001600160a01b0319166001600160a01b0392909216919091179055565b8051602082012060006120ff87876120f98888611e40565b8561156b565b60008181526002602052604090206009810154919250906121935780546001600160a01b0319166001600160a01b038a16178155875161214890600183019060208b019061307c565b50865161215e90600283019060208a01906130dd565b5085516121749060038301906020890190613118565b50845161218a9060048301906020880190613171565b50600981018390555b505050505050505050565b604051630748d63560e31b81526001600160a01b038381166004830152602482018390526000917f000000000000000000000000000000000000000000000000000000000000000090911690633a46b1a89060440160206040518083038186803b15801561220b57600080fd5b505afa15801561221f573d6000803e3d6000fd5b505050506040513d601f19601f820116820180604052508101906115359190613780565b60006064600354604051632394e7a360e21b8152600481018590527f00000000000000000000000000000000000000000000000000000000000000006001600160a01b031690638e539e8c9060240160206040518083038186803b1580156122aa57600080fd5b505afa1580156122be573d6000803e3d6000fd5b505050506040513d601f19601f820116820180604052508101906122e29190613780565b6122ec9190613da6565b6108da9190613d86565b60006001600160e01b0319821663bf26d89760e01b14806108da57506301ffc9a760e01b6001600160e01b03198316146108da565b6004805460405163e38335e560e01b81526001600160a01b039091169163e38335e5913491612365918991899189916000918a9101613a75565b6000604051808303818588803b15801561237e57600080fd5b505af1158015612392573d6000803e3d6000fd5b50505050505050505050565b60007f00000000000000000000000000000000000000000000000000000000000000004614156123ed57507f000000000000000000000000000000000000000000000000000000000000000090565b50604080517f00000000000000000000000000000000000000000000000000000000000000006020808301919091527f0000000000000000000000000000000000000000000000000000000000000000828401527f000000000000000000000000000000000000000000000000000000000000000060608301524660808301523060a0808401919091528351808403909101815260c0909201909252805191012090565b6000807f7fffffffffffffffffffffffffffffff5d576e7357a4501ddfe92f46681b20a08311156124c85750600090506003612575565b8460ff16601b141580156124e057508460ff16601c14155b156124f15750600090506004612575565b6040805160008082526020820180845289905260ff881692820192909252606081018690526080810185905260019060a0016020604051602081039080840390855afa158015612545573d6000803e3d6000fd5b5050604051601f1901519150506001600160a01b03811661256e57600060019250925050612575565b9150600090505b94509492505050565b60008160048111156125a057634e487b7160e01b600052602160045260246000fd5b14156125a95750565b60018160048111156125cb57634e487b7160e01b600052602160045260246000fd5b14156126195760405162461bcd60e51b815260206004820152601860248201527f45434453413a20696e76616c6964207369676e61747572650000000000000000604482015260640161093f565b600281600481111561263b57634e487b7160e01b600052602160045260246000fd5b14156126895760405162461bcd60e51b815260206004820152601f60248201527f45434453413a20696e76616c6964207369676e6174757265206c656e67746800604482015260640161093f565b60038160048111156126ab57634e487b7160e01b600052602160045260246000fd5b14156127045760405162461bcd60e51b815260206004820152602260248201527f45434453413a20696e76616c6964207369676e6174757265202773272076616c604482015261756560f01b606482015260840161093f565b600481600481111561272657634e487b7160e01b600052602160045260246000fd5b14156109515760405162461bcd60e51b815260206004820152602260248201527f45434453413a20696e76616c6964207369676e6174757265202776272076616c604482015261756560f01b606482015260840161093f565b60008481526002602090815260408083206001600160a01b038716845260088101909252909120805460ff161561280e5760405162461bcd60e51b815260206004820152602d60248201527f476f7665726e6f72436f6d7061746962696c697479427261766f3a20766f746560448201526c08185b1c9958591e4818d85cdd609a1b606482015260840161093f565b805460ff85166101000261ffff1990911617600117815561282e83612bd0565b81546001600160601b039190911662010000026dffffffffffffffffffffffff00001990911617815560ff841661287e57828260060160008282546128739190613d43565b9091555061291c9050565b60ff84166001141561289e57828260050160008282546128739190613d43565b60ff8416600214156128be57828260070160008282546128739190613d43565b60405162461bcd60e51b815260206004820152602d60248201527f476f7665726e6f72436f6d7061746962696c697479427261766f3a20696e766160448201526c6c696420766f7465207479706560981b606482015260840161093f565b505050505050565b6000818152600160208181526040808420815160a08101835281546001600160401b0390811660808301908152825283518086018552958301541685529283019390935260029092015460ff808216158015948401949094526101009091041615156060820152906129995750600792915050565b8060600151156129ac5750600292915050565b805151436001600160401b0390911611156129ca5750600092915050565b602081015151436001600160401b0390911611156129eb5750600192915050565b6129f88160200151612c3c565b15612a3c57612a0683612c6b565b8015612a28575060008381526002602052604090206006810154600590910154115b612a33576003611535565b60049392505050565b60405162461bcd60e51b815260206004820152601d60248201527f476f7665726e6f723a20756e6b6e6f776e2070726f706f73616c206964000000604482015260640161093f565b50919050565b600080612a9986868686612c92565b6000818152600560205260409020549091501561142357600480546000838152600560205260409081902054905163c4d252f560e01b8152928301526001600160a01b03169063c4d252f590602401600060405180830381600087803b158015612b0257600080fd5b505af1158015612b16573d6000803e3d6000fd5b5050506000828152600560205260408120555095945050505050565b600080612b443361079e600143613dc5565b1015612bc45760405162461bcd60e51b815260206004820152604360248201527f476f7665726e6f72436f6d7061746962696c697479427261766f3a2070726f7060448201527f6f73657220766f7465732062656c6f772070726f706f73616c207468726573686064820152621bdb1960ea1b608482015260a40161093f565b61142385858585612dc8565b60006001600160601b03821115612c385760405162461bcd60e51b815260206004820152602660248201527f53616665436173743a2076616c756520646f65736e27742066697420696e203960448201526536206269747360d01b606482015260840161093f565b5090565b6000612c5182516001600160401b0316151590565b80156108da57505051436001600160401b03909116111590565b60008181526002602052604081206005810154612c8a6107be85610d21565b109392505050565b600080612ca18686868661156b565b90506000612cae8261107d565b90506002816007811115612cd257634e487b7160e01b600052602160045260246000fd5b14158015612d0057506006816007811115612cfd57634e487b7160e01b600052602160045260246000fd5b14155b8015612d2c57506007816007811115612d2957634e487b7160e01b600052602160045260246000fd5b14155b612d785760405162461bcd60e51b815260206004820152601d60248201527f476f7665726e6f723a2070726f706f73616c206e6f7420616374697665000000604482015260640161093f565b60008281526001602052604090819020600201805461ff001916610100179055517f789cf55be980739dad1d0699b93b58e806b51c9d96619bfa8fe0a28abaa7b30c90610c0b9084815260200190565b600080612dde868686868051906020012061156b565b90508451865114612e015760405162461bcd60e51b815260040161093f90613ba3565b8351865114612e225760405162461bcd60e51b815260040161093f90613ba3565b6000865111612e735760405162461bcd60e51b815260206004820152601860248201527f476f7665726e6f723a20656d7074792070726f706f73616c0000000000000000604482015260640161093f565b600081815260016020908152604091829020825191820190925281546001600160401b03169081905215612ef35760405162461bcd60e51b815260206004820152602160248201527f476f7665726e6f723a2070726f706f73616c20616c72656164792065786973746044820152607360f81b606482015260840161093f565b6000612f006119af613014565b612f0943613014565b612f139190613d5b565b90506000612f2261b3cb613014565b612f2c9083613d5b565b835467ffffffffffffffff19166001600160401b038416178455905060018301805467ffffffffffffffff19166001600160401b0383161790557f7d84a6263ae0d98d3329bd7b46bb4e8d6f98cd35a7adb45c274c8b7fd5ebd5e084338b8b8d516001600160401b03811115612fb257634e487b7160e01b600052604160045260246000fd5b604051908082528060200260200182016040528015612fe557816020015b6060815260200190600190039081612fd05790505b508c88888e604051612fff99989796959493929190613c25565b60405180910390a15091979650505050505050565b60006001600160401b03821115612c385760405162461bcd60e51b815260206004820152602660248201527f53616665436173743a2076616c756520646f65736e27742066697420696e203660448201526534206269747360d01b606482015260840161093f565b8280548282559060005260206000209081019282156130d1579160200282015b828111156130d157825182546001600160a01b0319166001600160a01b0390911617825560209092019160019091019061309c565b50612c389291506131ca565b8280548282559060005260206000209081019282156130d1579160200282015b828111156130d15782518255916020019190600101906130fd565b828054828255906000526020600020908101928215613165579160200282015b8281111561316557825180516131559184916020909101906131df565b5091602001919060010190613138565b50612c38929150613252565b8280548282559060005260206000209081019282156131be579160200282015b828111156131be57825180516131ae9184916020909101906131df565b5091602001919060010190613191565b50612c3892915061326f565b5b80821115612c3857600081556001016131cb565b8280546131eb90613e0c565b90600052602060002090601f01602090048101928261320d57600085556130d1565b82601f1061322657805160ff19168380011785556130d1565b828001600101855582156130d157918201828111156130d15782518255916020019190600101906130fd565b80821115612c38576000613266828261328c565b50600101613252565b80821115612c38576000613283828261328c565b5060010161326f565b50805461329890613e0c565b6000825580601f106132a8575050565b601f01602090049060005260206000209081019061095191906131ca565b60006001600160401b038311156132df576132df613e72565b6132f2601f8401601f1916602001613cf0565b905082815283838301111561330657600080fd5b828260208301376000602084830101529392505050565b600082601f83011261332d578081fd5b8135602061334261333d83613d20565b613cf0565b80838252828201915082860187848660051b8901011115613361578586fd5b855b8581101561338857813561337681613e88565b84529284019290840190600101613363565b5090979650505050505050565b600082601f8301126133a5578081fd5b813560206133b561333d83613d20565b80838252828201915082860187848660051b89010111156133d4578586fd5b855b858110156133885781356001600160401b038111156133f3578788fd5b8801603f81018a13613403578788fd5b6134148a87830135604084016132c6565b85525092840192908401906001016133d6565b600082601f830112613437578081fd5b8135602061344761333d83613d20565b80838252828201915082860187848660051b8901011115613466578586fd5b855b858110156133885781356001600160401b03811115613485578788fd5b6134938a87838c0101613503565b8552509284019290840190600101613468565b600082601f8301126134b6578081fd5b813560206134c661333d83613d20565b80838252828201915082860187848660051b89010111156134e5578586fd5b855b85811015613388578135845292840192908401906001016134e7565b600082601f830112613513578081fd5b611535838335602085016132c6565b803560ff8116811461353357600080fd5b919050565b6000806040838503121561354a578182fd5b823561355581613e88565b946020939093013593505050565b60008060008060808587031215613578578182fd5b84356001600160401b038082111561358e578384fd5b61359a8883890161331d565b955060208701359150808211156135af578384fd5b6135bb888389016134a6565b945060408701359150808211156135d0578384fd5b506135dd87828801613395565b949793965093946060013593505050565b60008060008060808587031215613603578182fd5b84356001600160401b0380821115613619578384fd5b6136258883890161331d565b9550602087013591508082111561363a578384fd5b613646888389016134a6565b9450604087013591508082111561365b578384fd5b61366788838901613395565b9350606087013591508082111561367c578283fd5b5061368987828801613503565b91505092959194509250565b600080600080600060a086880312156136ac578283fd5b85356001600160401b03808211156136c2578485fd5b6136ce89838a0161331d565b965060208801359150808211156136e3578485fd5b6136ef89838a016134a6565b95506040880135915080821115613704578485fd5b61371089838a01613427565b94506060880135915080821115613725578283fd5b61373189838a01613395565b93506080880135915080821115613746578283fd5b5061375388828901613503565b9150509295509295909350565b600060208284031215613771578081fd5b81518015158114611535578182fd5b600060208284031215613791578081fd5b5051919050565b6000602082840312156137a9578081fd5b81356001600160e01b031981168114611535578182fd5b6000602082840312156137d1578081fd5b813561153581613e88565b6000602082840312156137ed578081fd5b5035919050565b60008060408385031215613806578182fd5b82359150602083013561381881613e88565b809150509250929050565b60008060408385031215613835578182fd5b8235915061384560208401613522565b90509250929050565b60008060008060608587031215613863578182fd5b8435935061387360208601613522565b925060408501356001600160401b038082111561388e578384fd5b818701915087601f8301126138a1578384fd5b8135818111156138af578485fd5b8860208285010111156138c0578485fd5b95989497505060200194505050565b600080600080600060a086880312156138e6578283fd5b853594506138f660208701613522565b935061390460408701613522565b94979396509394606081013594506080013592915050565b6000815180845260208085019450808401835b838110156139545781516001600160a01b03168752958201959082019060010161392f565b509495945050505050565b600081518084526020808501808196508360051b81019150828601855b858110156139a65782840389526139948483516139e2565b9885019893509084019060010161397c565b5091979650505050505050565b6000815180845260208085019450808401835b83811015613954578151875295820195908201906001016139c6565b600081518084526139fa816020860160208601613ddc565b601f01601f19169290920160200192915050565b60008251613a20818460208701613ddc565b9190910192915050565b608081526000613a3d608083018761391c565b8281036020840152613a4f81876139b3565b90508281036040840152613a63818661395f565b91505082606083015295945050505050565b60a081526000613a8860a083018861391c565b8281036020840152613a9a81886139b3565b90508281036040840152613aae818761395f565b60608401959095525050608001529392505050565b60c081526000613ad660c083018961391c565b8281036020840152613ae881896139b3565b90508281036040840152613afc818861395f565b60608401969096525050608081019290925260a0909101529392505050565b608081526000613b2e608083018761391c565b8281036020840152613b4081876139b3565b90508281036040840152613b54818661395f565b90508281036060840152611072818561395f565b60208152600061153560208301846139e2565b6020810160088310613b9d57634e487b7160e01b600052602160045260246000fd5b91905290565b60208082526021908201527f476f7665726e6f723a20696e76616c69642070726f706f73616c206c656e67746040820152600d60fb1b606082015260800190565b60208082526021908201527f476f7665726e6f723a2070726f706f73616c206e6f74207375636365737366756040820152601b60fa1b606082015260800190565b8981526001600160a01b038916602082015261012060408201819052600090613c508382018b61391c565b90508281036060840152613c64818a6139b3565b90508281036080840152613c78818961395f565b905082810360a0840152613c8c818861395f565b6001600160401b0387811660c0860152861660e08501528381036101008501529050613cb881856139e2565b9c9b505050505050505050505050565b84815260ff8416602082015282604082015260806060820152600061140b60808301846139e2565b604051601f8201601f191681016001600160401b0381118282101715613d1857613d18613e72565b604052919050565b60006001600160401b03821115613d3957613d39613e72565b5060051b60200190565b60008219821115613d5657613d56613e5c565b500190565b60006001600160401b03808316818516808303821115613d7d57613d7d613e5c565b01949350505050565b600082613da157634e487b7160e01b81526012600452602481fd5b500490565b6000816000190483118215151615613dc057613dc0613e5c565b500290565b600082821015613dd757613dd7613e5c565b500390565b60005b83811015613df7578181015183820152602001613ddf565b83811115613e06576000848401525b50505050565b600181811c90821680613e2057607f821691505b60208210811415612a8457634e487b7160e01b600052602260045260246000fd5b6000600019821415613e5557613e55613e5c565b5060010190565b634e487b7160e01b600052601160045260246000fd5b634e487b7160e01b600052604160045260246000fd5b6001600160a01b038116811461095157600080fdfea26469706673582212205c59f37a09dc91d6c456169966fded1a7461f5517817a322e0207c56b55c71f464736f6c63430008040033",
  "linkReferences": {},
  "deployedLinkReferences": {}
}