{
  "_format": "hh-sol-artifact-1",
  "contractName": "DataStore",
  "sourceName": "contracts/DataStore.sol",
  "abi": [
    {
      "inputs": [],
      "stateMutability": "nonpayable",
      "type": "constructor"
    },
    {
      "anonymous": false,
      "inputs": [
        {
          "indexed": true,
          "internalType": "string",
          "name": "name",
          "type": "string"
        },
        {
          "indexed": true,
          "internalType": "address",
          "name": "_address",
          "type": "address"
        },
        {
          "indexed": true,
          "internalType": "uint256",
          "name": "categoryId",
          "type": "uint256"
        }
      ],
      "name": "AddedContract",
      "type": "event"
    },
    {
      "anonymous": false,
      "inputs": [
        {
          "indexed": true,
          "internalType": "string",
          "name": "name",
          "type": "string"
        }
      ],
      "name": "AddedContractCategory",
      "type": "event"
    },
    {
      "inputs": [
        {
          "internalType": "string",
          "name": "name",
          "type": "string"
        },
        {
          "internalType": "address",
          "name": "_address",
          "type": "address"
        },
        {
          "internalType": "uint256",
          "name": "categoryId",
          "type": "uint256"
        }
      ],
      "name": "addContract",
      "outputs": [],
      "stateMutability": "nonpayable",
      "type": "function"
    },
    {
      "inputs": [
        {
          "internalType": "string",
          "name": "category",
          "type": "string"
        }
      ],
      "name": "addContractCategory",
      "outputs": [],
      "stateMutability": "nonpayable",
      "type": "function"
    },
    {
      "inputs": [
        {
          "internalType": "uint256",
          "name": "",
          "type": "uint256"
        }
      ],
      "name": "contractCategories",
      "outputs": [
        {
          "internalType": "string",
          "name": "",
          "type": "string"
        }
      ],
      "stateMutability": "view",
      "type": "function"
    },
    {
      "inputs": [
        {
          "internalType": "uint256",
          "name": "",
          "type": "uint256"
        }
      ],
      "name": "contracts",
      "outputs": [
        {
          "internalType": "string",
          "name": "name",
          "type": "string"
        },
        {
          "internalType": "address",
          "name": "_address",
          "type": "address"
        },
        {
          "internalType": "uint256",
          "name": "categoryId",
          "type": "uint256"
        }
      ],
      "stateMutability": "view",
      "type": "function"
    },
    {
      "inputs": [],
      "name": "contractsLength",
      "outputs": [
        {
          "internalType": "uint256",
          "name": "",
          "type": "uint256"
        }
      ],
      "stateMutability": "view",
      "type": "function"
    },
    {
      "inputs": [],
      "name": "getAllContractCetgories",
      "outputs": [
        {
          "internalType": "string[]",
          "name": "_categories",
          "type": "string[]"
        }
      ],
      "stateMutability": "view",
      "type": "function"
    },
    {
      "inputs": [],
      "name": "getAllContracts",
      "outputs": [
        {
          "components": [
            {
              "internalType": "string",
              "name": "name",
              "type": "string"
            },
            {
              "internalType": "address",
              "name": "_address",
              "type": "address"
            },
            {
              "internalType": "uint256",
              "name": "categoryId",
              "type": "uint256"
            }
          ],
          "internalType": "struct DataStore.Contract[]",
          "name": "",
          "type": "tuple[]"
        }
      ],
      "stateMutability": "view",
      "type": "function"
    },
    {
      "inputs": [
        {
          "internalType": "uint256",
          "name": "id",
          "type": "uint256"
        }
      ],
      "name": "getContractCategory",
      "outputs": [
        {
          "internalType": "string",
          "name": "category",
          "type": "string"
        }
      ],
      "stateMutability": "view",
      "type": "function"
    },
    {
      "inputs": [
        {
          "internalType": "string",
          "name": "name",
          "type": "string"
        }
      ],
      "name": "getContractCategoryIdFromName",
      "outputs": [
        {
          "internalType": "uint256",
          "name": "val",
          "type": "uint256"
        }
      ],
      "stateMutability": "view",
      "type": "function"
    },
    {
      "inputs": [
        {
          "internalType": "uint256",
          "name": "catId",
          "type": "uint256"
        }
      ],
      "name": "getContractsByCategory",
      "outputs": [
        {
          "components": [
            {
              "internalType": "string",
              "name": "name",
              "type": "string"
            },
            {
              "internalType": "address",
              "name": "_address",
              "type": "address"
            },
            {
              "internalType": "uint256",
              "name": "categoryId",
              "type": "uint256"
            }
          ],
          "internalType": "struct DataStore.Contract[]",
          "name": "_contracts",
          "type": "tuple[]"
        }
      ],
      "stateMutability": "view",
      "type": "function"
    }
  ],
  "bytecode": "0x60806040523480156200001157600080fd5b5060408051808201909152600f81526e756e69737761705f666163746f727960881b60208201526200004390620000d1565b60408051808201909152600e81526d3ab734b9bbb0b82fb937baba32b960911b60208201526200007390620000d1565b60408051808201909152600a81526936b0b9ba32b921b432b360b11b60208201526200009f90620000d1565b60408051808201909152600a81526936b4b734a1b432b32b1960b11b6020820152620000cb90620000d1565b62000692565b620000dc81620001a8565b15620001205760405162461bcd60e51b815260206004820152600f60248201526e43617465676f72792065786973747360881b604482015260640160405180910390fd5b600180548082018255600091909152815162000164917fb10e2d527612073b26eecdfd717e6a320cf44b4afac2b0732d9fcbe2b7fa0cf60190602084019062000517565b5080604051620001759190620005bd565b604051908190038120907f7b57dd1859191f834cc8922426168172411aa109848e6fae960407656e1ed2df90600090a250565b600154600090815b81811015620002db57620002b66200028f60018381548110620001e357634e487b7160e01b600052603260045260246000fd5b906000526020600020018054620001fa9062000621565b80601f0160208091040260200160405190810160405280929190818152602001828054620002289062000621565b8015620002795780601f106200024d5761010080835404028352916020019162000279565b820191906000526020600020905b8154815290600101906020018083116200025b57829003601f168201915b5050505050620002e560201b62000b301760201c565b620002a586620002e560201b62000b301760201c565b620004ba60201b62000cf51760201c565b15620002c6575060019392505050565b80620002d2816200065e565b915050620001b0565b5060009392505050565b60606000829050600081516001600160401b038111156200031657634e487b7160e01b600052604160045260246000fd5b6040519080825280601f01601f19166020018201604052801562000341576020820181803683370190505b50905060005b8251811015620004b25760418382815181106200037457634e487b7160e01b600052603260045260246000fd5b016020015160f81c10801590620003b45750605a838281518110620003a957634e487b7160e01b600052603260045260246000fd5b016020015160f81c11155b156200043857828181518110620003db57634e487b7160e01b600052603260045260246000fd5b602001015160f81c60f81b60f81c6020620003f79190620005f9565b60f81b8282815181106200041b57634e487b7160e01b600052603260045260246000fd5b60200101906001600160f81b031916908160001a9053506200049d565b8281815181106200045957634e487b7160e01b600052603260045260246000fd5b602001015160f81c60f81b8282815181106200048557634e487b7160e01b600052603260045260246000fd5b60200101906001600160f81b031916908160001a9053505b80620004a9816200065e565b91505062000347565b509392505050565b600081604051602001620004cf9190620005bd565b6040516020818303038152906040528051906020012083604051602001620004f89190620005bd565b6040516020818303038152906040528051906020012014905092915050565b828054620005259062000621565b90600052602060002090601f01602090048101928262000549576000855562000594565b82601f106200056457805160ff191683800117855562000594565b8280016001018555821562000594579182015b828111156200059457825182559160200191906001019062000577565b50620005a2929150620005a6565b5090565b5b80821115620005a25760008155600101620005a7565b60008251815b81811015620005df5760208186018101518583015201620005c3565b81811115620005ee5782828501525b509190910192915050565b600060ff821660ff84168060ff038211156200061957620006196200067c565b019392505050565b600181811c908216806200063657607f821691505b602082108114156200065857634e487b7160e01b600052602260045260246000fd5b50919050565b60006000198214156200067557620006756200067c565b5060010190565b634e487b7160e01b600052601160045260246000fd5b61127f80620006a26000396000f3fe608060405234801561001057600080fd5b506004361061009e5760003560e01c80638fa76f03116100665780638fa76f031461011d578063a3fd684714610130578063ae43cd8414610145578063b8278f4514610158578063fdd6d4d71461017857600080fd5b806318d3ce96146100a35780632da7fac8146100c15780633fad74ad146100d657806343054fbf146100e8578063474da79a146100fb575b600080fd5b6100ab61018b565b6040516100b891906110a1565b60405180910390f35b6100d46100cf366004610f42565b61029f565b005b6000545b6040519081526020016100b8565b6100d46100f6366004610f7d565b610370565b61010e610109366004610fe0565b6104a0565b6040516100b893929190611144565b6100ab61012b366004610fe0565b61056c565b6101386107f5565b6040516100b89190611040565b6100da610153366004610f42565b6108c5565b61016b610166366004610fe0565b6109c7565b6040516100b8919061112a565b61016b610186366004610fe0565b610a84565b60606000805480602002602001604051908101604052809291908181526020016000905b8282101561029657838290600052602060002090600302016040518060600160405290816000820180546101e2906111c7565b80601f016020809104026020016040519081016040528092919081815260200182805461020e906111c7565b801561025b5780601f106102305761010080835404028352916020019161025b565b820191906000526020600020905b81548152906001019060200180831161023e57829003601f168201915b50505091835250506001828101546001600160a01b0316602080840191909152600290930154604090920191909152918352920191016101af565b50505050905090565b6102a881610d4e565b156102ec5760405162461bcd60e51b815260206004820152600f60248201526e43617465676f72792065786973747360881b60448201526064015b60405180910390fd5b600180548082018255600091909152815161032e917fb10e2d527612073b26eecdfd717e6a320cf44b4afac2b0732d9fcbe2b7fa0cf601906020840190610e22565b508060405161033d9190611024565b604051908190038120907f7b57dd1859191f834cc8922426168172411aa109848e6fae960407656e1ed2df90600090a250565b61037982610db0565b156103b85760405162461bcd60e51b815260206004820152600f60248201526e436f6e74726163742065786973747360881b60448201526064016102e3565b604080516060810182528481526001600160a01b0384166020808301919091529181018390526000805460018101825590805281518051929360039092027f290decd9548b62a8d60345a988386fc84ba6bc95484008f6362f93160ef3e56301926104269284920190610e22565b5060208201516001820180546001600160a01b0319166001600160a01b039283161790556040928301516002909201919091559051829184169061046b908690611024565b604051908190038120907f664e79b1312b5eebaad7ecf8bbd9c8601ff521d0676f4141e5e2361b8232c4a790600090a4505050565b600081815481106104b057600080fd5b90600052602060002090600302016000915090508060000180546104d3906111c7565b80601f01602080910402602001604051908101604052809291908181526020018280546104ff906111c7565b801561054c5780601f106105215761010080835404028352916020019161054c565b820191906000526020600020905b81548152906001019060200180831161052f57829003601f168201915b50505050600183015460029093015491926001600160a01b031691905083565b60008054606091805b828210156105d757846000838154811061059f57634e487b7160e01b600052603260045260246000fd5b90600052602060002090600302016002015414156105c557806105c181611202565b9150505b816105cf81611202565b925050610575565b8067ffffffffffffffff8111156105fe57634e487b7160e01b600052604160045260246000fd5b60405190808252806020026020018201604052801561065c57816020015b61064960405180606001604052806060815260200160006001600160a01b03168152602001600081525090565b81526020019060019003908161061c5790505b50935060008092505b838310156107ec578181141561067a576107da565b856000848154811061069c57634e487b7160e01b600052603260045260246000fd5b90600052602060002090600302016002015414156107da57600083815481106106d557634e487b7160e01b600052603260045260246000fd5b90600052602060002090600302016040518060600160405290816000820180546106fe906111c7565b80601f016020809104026020016040519081016040528092919081815260200182805461072a906111c7565b80156107775780601f1061074c57610100808354040283529160200191610777565b820191906000526020600020905b81548152906001019060200180831161075a57829003601f168201915b505050918352505060018201546001600160a01b0316602082015260029091015460409091015285518690839081106107c057634e487b7160e01b600052603260045260246000fd5b602002602001018190525080806107d690611202565b9150505b826107e481611202565b935050610665565b50505050919050565b60606001805480602002602001604051908101604052809291908181526020016000905b82821015610296578382906000526020600020018054610838906111c7565b80601f0160208091040260200160405190810160405280929190818152602001828054610864906111c7565b80156108b15780601f10610886576101008083540402835291602001916108b1565b820191906000526020600020905b81548152906001019060200180831161089457829003601f168201915b505050505081526020019060010190610819565b600154600090815b818110156109c0576109a2610994600183815481106108fc57634e487b7160e01b600052603260045260246000fd5b906000526020600020018054610911906111c7565b80601f016020809104026020016040519081016040528092919081815260200182805461093d906111c7565b801561098a5780601f1061095f5761010080835404028352916020019161098a565b820191906000526020600020905b81548152906001019060200180831161096d57829003601f168201915b5050505050610b30565b61099d86610b30565b610cf5565b156109ae579392505050565b806109b881611202565b9150506108cd565b5050919050565b6060600182815481106109ea57634e487b7160e01b600052603260045260246000fd5b9060005260206000200180546109ff906111c7565b80601f0160208091040260200160405190810160405280929190818152602001828054610a2b906111c7565b8015610a785780601f10610a4d57610100808354040283529160200191610a78565b820191906000526020600020905b815481529060010190602001808311610a5b57829003601f168201915b50505050509050919050565b60018181548110610a9457600080fd5b906000526020600020016000915090508054610aaf906111c7565b80601f0160208091040260200160405190810160405280929190818152602001828054610adb906111c7565b8015610b285780601f10610afd57610100808354040283529160200191610b28565b820191906000526020600020905b815481529060010190602001808311610b0b57829003601f168201915b505050505081565b606060008290506000815167ffffffffffffffff811115610b6157634e487b7160e01b600052604160045260246000fd5b6040519080825280601f01601f191660200182016040528015610b8b576020820181803683370190505b50905060005b8251811015610ced576041838281518110610bbc57634e487b7160e01b600052603260045260246000fd5b016020015160f81c10801590610bfa5750605a838281518110610bef57634e487b7160e01b600052603260045260246000fd5b016020015160f81c11155b15610c7857828181518110610c1f57634e487b7160e01b600052603260045260246000fd5b602001015160f81c60f81b60f81c6020610c399190611172565b60f81b828281518110610c5c57634e487b7160e01b600052603260045260246000fd5b60200101906001600160f81b031916908160001a905350610cdb565b828181518110610c9857634e487b7160e01b600052603260045260246000fd5b602001015160f81c60f81b828281518110610cc357634e487b7160e01b600052603260045260246000fd5b60200101906001600160f81b031916908160001a9053505b80610ce581611202565b915050610b91565b509392505050565b600081604051602001610d089190611024565b6040516020818303038152906040528051906020012083604051602001610d2f9190611024565b6040516020818303038152906040528051906020012014905092915050565b600154600090815b81811015610da657610d85610994600183815481106108fc57634e487b7160e01b600052603260045260246000fd5b15610d94575060019392505050565b80610d9e81611202565b915050610d56565b5060009392505050565b60008054815b81811015610da65760008181548110610ddf57634e487b7160e01b600052603260045260246000fd5b60009182526020909120600160039092020101546001600160a01b0385811691161415610e10575060019392505050565b80610e1a81611202565b915050610db6565b828054610e2e906111c7565b90600052602060002090601f016020900481019282610e505760008555610e96565b82601f10610e6957805160ff1916838001178555610e96565b82800160010185558215610e96579182015b82811115610e96578251825591602001919060010190610e7b565b50610ea2929150610ea6565b5090565b5b80821115610ea25760008155600101610ea7565b600082601f830112610ecb578081fd5b813567ffffffffffffffff80821115610ee657610ee6611233565b604051601f8301601f19908116603f01168101908282118183101715610f0e57610f0e611233565b81604052838152866020858801011115610f26578485fd5b8360208701602083013792830160200193909352509392505050565b600060208284031215610f53578081fd5b813567ffffffffffffffff811115610f69578182fd5b610f7584828501610ebb565b949350505050565b600080600060608486031215610f91578182fd5b833567ffffffffffffffff811115610fa7578283fd5b610fb386828701610ebb565b93505060208401356001600160a01b0381168114610fcf578283fd5b929592945050506040919091013590565b600060208284031215610ff1578081fd5b5035919050565b60008151808452611010816020860160208601611197565b601f01601f19169290920160200192915050565b60008251611036818460208701611197565b9190910192915050565b6000602080830181845280855180835260408601915060408160051b8701019250838701855b8281101561109457603f19888603018452611082858351610ff8565b94509285019290850190600101611066565b5092979650505050505050565b60006020808301818452808551808352604092508286019150828160051b870101848801865b8381101561111c57603f198984030185528151606081518186526110ed82870182610ff8565b838b01516001600160a01b0316878c0152928901519589019590955250948701949250908601906001016110c7565b509098975050505050505050565b60208152600061113d6020830184610ff8565b9392505050565b6060815260006111576060830186610ff8565b6001600160a01b039490941660208301525060400152919050565b600060ff821660ff84168060ff0382111561118f5761118f61121d565b019392505050565b60005b838110156111b257818101518382015260200161119a565b838111156111c1576000848401525b50505050565b600181811c908216806111db57607f821691505b602082108114156111fc57634e487b7160e01b600052602260045260246000fd5b50919050565b60006000198214156112165761121661121d565b5060010190565b634e487b7160e01b600052601160045260246000fd5b634e487b7160e01b600052604160045260246000fdfea2646970667358221220e579bebcb9b1026f9aa3044d2e68270f15000f86e9f57f3771aaf02b4f1eb15064736f6c63430008040033",
  "linkReferences": {},
  "deployedLinkReferences": {}
}