{
  "_format": "hh-sol-artifact-1",
  "contractName": "FraktalDefiServicesToken",
  "sourceName": "contracts/FraktalDefiServicesToken.sol",
  "abi": [
    {
      "inputs": [],
      "stateMutability": "nonpayable",
      "type": "constructor"
    },
    {
      "anonymous": false,
      "inputs": [
        {
          "indexed": true,
          "internalType": "address",
          "name": "owner",
          "type": "address"
        },
        {
          "indexed": true,
          "internalType": "address",
          "name": "spender",
          "type": "address"
        },
        {
          "indexed": false,
          "internalType": "uint256",
          "name": "value",
          "type": "uint256"
        }
      ],
      "name": "Approval",
      "type": "event"
    },
    {
      "anonymous": false,
      "inputs": [
        {
          "indexed": true,
          "internalType": "address",
          "name": "delegator",
          "type": "address"
        },
        {
          "indexed": true,
          "internalType": "address",
          "name": "fromDelegate",
          "type": "address"
        },
        {
          "indexed": true,
          "internalType": "address",
          "name": "toDelegate",
          "type": "address"
        }
      ],
      "name": "DelegateChanged",
      "type": "event"
    },
    {
      "anonymous": false,
      "inputs": [
        {
          "indexed": true,
          "internalType": "address",
          "name": "delegate",
          "type": "address"
        },
        {
          "indexed": false,
          "internalType": "uint256",
          "name": "previousBalance",
          "type": "uint256"
        },
        {
          "indexed": false,
          "internalType": "uint256",
          "name": "newBalance",
          "type": "uint256"
        }
      ],
      "name": "DelegateVotesChanged",
      "type": "event"
    },
    {
      "anonymous": false,
      "inputs": [
        {
          "indexed": true,
          "internalType": "address",
          "name": "from",
          "type": "address"
        },
        {
          "indexed": true,
          "internalType": "address",
          "name": "to",
          "type": "address"
        },
        {
          "indexed": false,
          "internalType": "uint256",
          "name": "value",
          "type": "uint256"
        }
      ],
      "name": "Transfer",
      "type": "event"
    },
    {
      "inputs": [],
      "name": "DOMAIN_SEPARATOR",
      "outputs": [
        {
          "internalType": "bytes32",
          "name": "",
          "type": "bytes32"
        }
      ],
      "stateMutability": "view",
      "type": "function"
    },
    {
      "inputs": [
        {
          "internalType": "address",
          "name": "owner",
          "type": "address"
        },
        {
          "internalType": "address",
          "name": "spender",
          "type": "address"
        }
      ],
      "name": "allowance",
      "outputs": [
        {
          "internalType": "uint256",
          "name": "",
          "type": "uint256"
        }
      ],
      "stateMutability": "view",
      "type": "function"
    },
    {
      "inputs": [
        {
          "internalType": "address",
          "name": "spender",
          "type": "address"
        },
        {
          "internalType": "uint256",
          "name": "amount",
          "type": "uint256"
        }
      ],
      "name": "approve",
      "outputs": [
        {
          "internalType": "bool",
          "name": "",
          "type": "bool"
        }
      ],
      "stateMutability": "nonpayable",
      "type": "function"
    },
    {
      "inputs": [
        {
          "internalType": "address",
          "name": "account",
          "type": "address"
        }
      ],
      "name": "balanceOf",
      "outputs": [
        {
          "internalType": "uint256",
          "name": "",
          "type": "uint256"
        }
      ],
      "stateMutability": "view",
      "type": "function"
    },
    {
      "inputs": [
        {
          "internalType": "address",
          "name": "account",
          "type": "address"
        },
        {
          "internalType": "uint32",
          "name": "pos",
          "type": "uint32"
        }
      ],
      "name": "checkpoints",
      "outputs": [
        {
          "components": [
            {
              "internalType": "uint32",
              "name": "fromBlock",
              "type": "uint32"
            },
            {
              "internalType": "uint224",
              "name": "votes",
              "type": "uint224"
            }
          ],
          "internalType": "struct ERC20Votes.Checkpoint",
          "name": "",
          "type": "tuple"
        }
      ],
      "stateMutability": "view",
      "type": "function"
    },
    {
      "inputs": [],
      "name": "decimals",
      "outputs": [
        {
          "internalType": "uint8",
          "name": "",
          "type": "uint8"
        }
      ],
      "stateMutability": "view",
      "type": "function"
    },
    {
      "inputs": [
        {
          "internalType": "address",
          "name": "spender",
          "type": "address"
        },
        {
          "internalType": "uint256",
          "name": "subtractedValue",
          "type": "uint256"
        }
      ],
      "name": "decreaseAllowance",
      "outputs": [
        {
          "internalType": "bool",
          "name": "",
          "type": "bool"
        }
      ],
      "stateMutability": "nonpayable",
      "type": "function"
    },
    {
      "inputs": [
        {
          "internalType": "address",
          "name": "delegatee",
          "type": "address"
        }
      ],
      "name": "delegate",
      "outputs": [],
      "stateMutability": "nonpayable",
      "type": "function"
    },
    {
      "inputs": [
        {
          "internalType": "address",
          "name": "delegatee",
          "type": "address"
        },
        {
          "internalType": "uint256",
          "name": "nonce",
          "type": "uint256"
        },
        {
          "internalType": "uint256",
          "name": "expiry",
          "type": "uint256"
        },
        {
          "internalType": "uint8",
          "name": "v",
          "type": "uint8"
        },
        {
          "internalType": "bytes32",
          "name": "r",
          "type": "bytes32"
        },
        {
          "internalType": "bytes32",
          "name": "s",
          "type": "bytes32"
        }
      ],
      "name": "delegateBySig",
      "outputs": [],
      "stateMutability": "nonpayable",
      "type": "function"
    },
    {
      "inputs": [
        {
          "internalType": "address",
          "name": "account",
          "type": "address"
        }
      ],
      "name": "delegates",
      "outputs": [
        {
          "internalType": "address",
          "name": "",
          "type": "address"
        }
      ],
      "stateMutability": "view",
      "type": "function"
    },
    {
      "inputs": [
        {
          "internalType": "uint256",
          "name": "blockNumber",
          "type": "uint256"
        }
      ],
      "name": "getPastTotalSupply",
      "outputs": [
        {
          "internalType": "uint256",
          "name": "",
          "type": "uint256"
        }
      ],
      "stateMutability": "view",
      "type": "function"
    },
    {
      "inputs": [
        {
          "internalType": "address",
          "name": "account",
          "type": "address"
        },
        {
          "internalType": "uint256",
          "name": "blockNumber",
          "type": "uint256"
        }
      ],
      "name": "getPastVotes",
      "outputs": [
        {
          "internalType": "uint256",
          "name": "",
          "type": "uint256"
        }
      ],
      "stateMutability": "view",
      "type": "function"
    },
    {
      "inputs": [
        {
          "internalType": "address",
          "name": "account",
          "type": "address"
        }
      ],
      "name": "getVotes",
      "outputs": [
        {
          "internalType": "uint256",
          "name": "",
          "type": "uint256"
        }
      ],
      "stateMutability": "view",
      "type": "function"
    },
    {
      "inputs": [
        {
          "internalType": "address",
          "name": "spender",
          "type": "address"
        },
        {
          "internalType": "uint256",
          "name": "addedValue",
          "type": "uint256"
        }
      ],
      "name": "increaseAllowance",
      "outputs": [
        {
          "internalType": "bool",
          "name": "",
          "type": "bool"
        }
      ],
      "stateMutability": "nonpayable",
      "type": "function"
    },
    {
      "inputs": [],
      "name": "name",
      "outputs": [
        {
          "internalType": "string",
          "name": "",
          "type": "string"
        }
      ],
      "stateMutability": "view",
      "type": "function"
    },
    {
      "inputs": [
        {
          "internalType": "address",
          "name": "owner",
          "type": "address"
        }
      ],
      "name": "nonces",
      "outputs": [
        {
          "internalType": "uint256",
          "name": "",
          "type": "uint256"
        }
      ],
      "stateMutability": "view",
      "type": "function"
    },
    {
      "inputs": [
        {
          "internalType": "address",
          "name": "account",
          "type": "address"
        }
      ],
      "name": "numCheckpoints",
      "outputs": [
        {
          "internalType": "uint32",
          "name": "",
          "type": "uint32"
        }
      ],
      "stateMutability": "view",
      "type": "function"
    },
    {
      "inputs": [
        {
          "internalType": "address",
          "name": "owner",
          "type": "address"
        },
        {
          "internalType": "address",
          "name": "spender",
          "type": "address"
        },
        {
          "internalType": "uint256",
          "name": "value",
          "type": "uint256"
        },
        {
          "internalType": "uint256",
          "name": "deadline",
          "type": "uint256"
        },
        {
          "internalType": "uint8",
          "name": "v",
          "type": "uint8"
        },
        {
          "internalType": "bytes32",
          "name": "r",
          "type": "bytes32"
        },
        {
          "internalType": "bytes32",
          "name": "s",
          "type": "bytes32"
        }
      ],
      "name": "permit",
      "outputs": [],
      "stateMutability": "nonpayable",
      "type": "function"
    },
    {
      "inputs": [],
      "name": "symbol",
      "outputs": [
        {
          "internalType": "string",
          "name": "",
          "type": "string"
        }
      ],
      "stateMutability": "view",
      "type": "function"
    },
    {
      "inputs": [],
      "name": "totalSupply",
      "outputs": [
        {
          "internalType": "uint256",
          "name": "",
          "type": "uint256"
        }
      ],
      "stateMutability": "view",
      "type": "function"
    },
    {
      "inputs": [
        {
          "internalType": "address",
          "name": "recipient",
          "type": "address"
        },
        {
          "internalType": "uint256",
          "name": "amount",
          "type": "uint256"
        }
      ],
      "name": "transfer",
      "outputs": [
        {
          "internalType": "bool",
          "name": "",
          "type": "bool"
        }
      ],
      "stateMutability": "nonpayable",
      "type": "function"
    },
    {
      "inputs": [
        {
          "internalType": "address",
          "name": "sender",
          "type": "address"
        },
        {
          "internalType": "address",
          "name": "recipient",
          "type": "address"
        },
        {
          "internalType": "uint256",
          "name": "amount",
          "type": "uint256"
        }
      ],
      "name": "transferFrom",
      "outputs": [
        {
          "internalType": "bool",
          "name": "",
          "type": "bool"
        }
      ],
      "stateMutability": "nonpayable",
      "type": "function"
    }
  ],
  "bytecode": "0x6101406040527f6e71edae12b1b97f4d1f60370fef10105fa2faae0126114a169c64845d6126c9610120523480156200003757600080fd5b506040518060400160405280601881526020017f4672616b74616c446566695365727669636573546f6b656e000000000000000081525080604051806040016040528060018152602001603160f81b8152506040518060400160405280601881526020017f4672616b74616c446566695365727669636573546f6b656e000000000000000081525060405180604001604052806004815260200163119114d560e21b8152508160039080519060200190620000f49291906200019e565b5080516200010a9060049060208401906200019e565b5050825160209384012082519284019290922060c083815260e08290524660a0818152604080517f8b73c3c69bb8fe3d512ecc4cf759cc79239f7b179b0ffacaa9a75d522b39400f818a018190528183019890985260608101959095526080808601939093523085830152805180860390920182529390920190925280519401939093209092526101005250620002819050565b828054620001ac9062000244565b90600052602060002090601f016020900481019282620001d057600085556200021b565b82601f10620001eb57805160ff19168380011785556200021b565b828001600101855582156200021b579182015b828111156200021b578251825591602001919060010190620001fe565b50620002299291506200022d565b5090565b5b808211156200022957600081556001016200022e565b600181811c908216806200025957607f821691505b602082108114156200027b57634e487b7160e01b600052602260045260246000fd5b50919050565b60805160a05160c05160e0516101005161012051611ae4620002d1600039600061093601526000610e2c01526000610e7b01526000610e5601526000610dda01526000610e030152611ae46000f3fe608060405234801561001057600080fd5b50600436106101425760003560e01c806370a08231116100b8578063a457c2d71161007c578063a457c2d7146102d5578063a9059cbb146102e8578063c3cda520146102fb578063d505accf1461030e578063dd62ed3e14610321578063f1127ed81461035a57600080fd5b806370a082311461026b5780637ecebe00146102945780638e539e8c146102a757806395d89b41146102ba5780639ab24eb0146102c257600080fd5b80633644e5151161010a5780633644e515146101bc57806339509351146101c45780633a46b1a8146101d7578063587cde1e146101ea5780635c19a95c1461022e5780636fcfff451461024357600080fd5b806306fdde0314610147578063095ea7b31461016557806318160ddd1461018857806323b872dd1461019a578063313ce567146101ad575b600080fd5b61014f610397565b60405161015c91906119c1565b60405180910390f35b6101786101733660046118eb565b610429565b604051901515815260200161015c565b6002545b60405190815260200161015c565b6101786101a8366004611847565b61043f565b6040516012815260200161015c565b61018c6104ee565b6101786101d23660046118eb565b6104fd565b61018c6101e53660046118eb565b610539565b6102166101f83660046117fb565b6001600160a01b039081166000908152600660205260409020541690565b6040516001600160a01b03909116815260200161015c565b61024161023c3660046117fb565b6105b3565b005b6102566102513660046117fb565b6105c0565b60405163ffffffff909116815260200161015c565b61018c6102793660046117fb565b6001600160a01b031660009081526020819052604090205490565b61018c6102a23660046117fb565b6105e8565b61018c6102b53660046119a9565b610606565b61014f610662565b61018c6102d03660046117fb565b610671565b6101786102e33660046118eb565b610706565b6101786102f63660046118eb565b61079f565b610241610309366004611914565b6107ac565b61024161031c366004611882565b6108e2565b61018c61032f366004611815565b6001600160a01b03918216600090815260016020908152604080832093909416825291909152205490565b61036d61036836600461196b565b610a46565b60408051825163ffffffff1681526020928301516001600160e01b0316928101929092520161015c565b6060600380546103a690611a63565b80601f01602080910402602001604051908101604052809291908181526020018280546103d290611a63565b801561041f5780601f106103f45761010080835404028352916020019161041f565b820191906000526020600020905b81548152906001019060200180831161040257829003601f168201915b5050505050905090565b6000610436338484610ad8565b50600192915050565b600061044c848484610bfc565b6001600160a01b0384166000908152600160209081526040808320338452909152902054828110156104d65760405162461bcd60e51b815260206004820152602860248201527f45524332303a207472616e7366657220616d6f756e74206578636565647320616044820152676c6c6f77616e636560c01b60648201526084015b60405180910390fd5b6104e38533858403610ad8565b506001949350505050565b60006104f8610dd6565b905090565b3360008181526001602090815260408083206001600160a01b03871684529091528120549091610436918590610534908690611a14565b610ad8565b600043821061058a5760405162461bcd60e51b815260206004820152601f60248201527f4552433230566f7465733a20626c6f636b206e6f7420796574206d696e65640060448201526064016104cd565b6001600160a01b03831660009081526007602052604090206105ac9083610ec9565b9392505050565b6105bd3382610fa2565b50565b6001600160a01b0381166000908152600760205260408120546105e29061101b565b92915050565b6001600160a01b0381166000908152600560205260408120546105e2565b60004382106106575760405162461bcd60e51b815260206004820152601f60248201527f4552433230566f7465733a20626c6f636b206e6f7420796574206d696e65640060448201526064016104cd565b6105e2600883610ec9565b6060600480546103a690611a63565b6001600160a01b03811660009081526007602052604081205480156106f3576001600160a01b03831660009081526007602052604090206106b3600183611a4c565b815481106106d157634e487b7160e01b600052603260045260246000fd5b60009182526020909120015464010000000090046001600160e01b03166106f6565b60005b6001600160e01b03169392505050565b3360009081526001602090815260408083206001600160a01b0386168452909152812054828110156107885760405162461bcd60e51b815260206004820152602560248201527f45524332303a2064656372656173656420616c6c6f77616e63652062656c6f77604482015264207a65726f60d81b60648201526084016104cd565b6107953385858403610ad8565b5060019392505050565b6000610436338484610bfc565b834211156107fc5760405162461bcd60e51b815260206004820152601d60248201527f4552433230566f7465733a207369676e6174757265206578706972656400000060448201526064016104cd565b604080517fe48329057bfd03d55e49b547132e39cffd9c1820ad7b9d4c5307691425d15adf60208201526001600160a01b0388169181019190915260608101869052608081018590526000906108769061086e9060a00160405160208183030381529060405280519060200120611084565b8585856110d2565b9050610881816110fa565b86146108cf5760405162461bcd60e51b815260206004820152601960248201527f4552433230566f7465733a20696e76616c6964206e6f6e63650000000000000060448201526064016104cd565b6108d98188610fa2565b50505050505050565b834211156109325760405162461bcd60e51b815260206004820152601d60248201527f45524332305065726d69743a206578706972656420646561646c696e6500000060448201526064016104cd565b60007f00000000000000000000000000000000000000000000000000000000000000008888886109618c6110fa565b6040805160208101969096526001600160a01b0394851690860152929091166060840152608083015260a082015260c0810186905260e00160405160208183030381529060405280519060200120905060006109bc82611084565b905060006109cc828787876110d2565b9050896001600160a01b0316816001600160a01b031614610a2f5760405162461bcd60e51b815260206004820152601e60248201527f45524332305065726d69743a20696e76616c6964207369676e6174757265000060448201526064016104cd565b610a3a8a8a8a610ad8565b50505050505050505050565b60408051808201909152600080825260208201526001600160a01b0383166000908152600760205260409020805463ffffffff8416908110610a9857634e487b7160e01b600052603260045260246000fd5b60009182526020918290206040805180820190915291015463ffffffff8116825264010000000090046001600160e01b0316918101919091529392505050565b6001600160a01b038316610b3a5760405162461bcd60e51b8152602060048201526024808201527f45524332303a20617070726f76652066726f6d20746865207a65726f206164646044820152637265737360e01b60648201526084016104cd565b6001600160a01b038216610b9b5760405162461bcd60e51b815260206004820152602260248201527f45524332303a20617070726f766520746f20746865207a65726f206164647265604482015261737360f01b60648201526084016104cd565b6001600160a01b0383811660008181526001602090815260408083209487168084529482529182902085905590518481527f8c5be1e5ebec7d5bd14f71427d1e84f3dd0314c0f7b2291e5b200ac8c7c3b925910160405180910390a3505050565b6001600160a01b038316610c605760405162461bcd60e51b815260206004820152602560248201527f45524332303a207472616e736665722066726f6d20746865207a65726f206164604482015264647265737360d81b60648201526084016104cd565b6001600160a01b038216610cc25760405162461bcd60e51b815260206004820152602360248201527f45524332303a207472616e7366657220746f20746865207a65726f206164647260448201526265737360e81b60648201526084016104cd565b6001600160a01b03831660009081526020819052604090205481811015610d3a5760405162461bcd60e51b815260206004820152602660248201527f45524332303a207472616e7366657220616d6f756e7420657863656564732062604482015265616c616e636560d01b60648201526084016104cd565b6001600160a01b03808516600090815260208190526040808220858503905591851681529081208054849290610d71908490611a14565b92505081905550826001600160a01b0316846001600160a01b03167fddf252ad1be2c89b69c2b068fc378daa952ba7f163c4a11628f55a4df523b3ef84604051610dbd91815260200190565b60405180910390a3610dd0848484611127565b50505050565b60007f0000000000000000000000000000000000000000000000000000000000000000461415610e2557507f000000000000000000000000000000000000000000000000000000000000000090565b50604080517f00000000000000000000000000000000000000000000000000000000000000006020808301919091527f0000000000000000000000000000000000000000000000000000000000000000828401527f000000000000000000000000000000000000000000000000000000000000000060608301524660808301523060a0808401919091528351808403909101815260c0909201909252805191012090565b8154600090815b81811015610f3b576000610ee48284611132565b905084868281548110610f0757634e487b7160e01b600052603260045260246000fd5b60009182526020909120015463ffffffff161115610f2757809250610f35565b610f32816001611a14565b91505b50610ed0565b8115610f8d5784610f4d600184611a4c565b81548110610f6b57634e487b7160e01b600052603260045260246000fd5b60009182526020909120015464010000000090046001600160e01b0316610f90565b60005b6001600160e01b031695945050505050565b6001600160a01b038281166000818152600660208181526040808420805485845282862054949093528787166001600160a01b03198416811790915590519190951694919391928592917f3134e8a2e6d97e929a7e54011ea5485d7d196dd5f0ba4d4ef95803e8e3fc257f9190a4610dd082848361114d565b600063ffffffff8211156110805760405162461bcd60e51b815260206004820152602660248201527f53616665436173743a2076616c756520646f65736e27742066697420696e203360448201526532206269747360d01b60648201526084016104cd565b5090565b60006105e2611091610dd6565b8360405161190160f01b6020820152602281018390526042810182905260009060620160405160208183030381529060405280519060200120905092915050565b60008060006110e38787878761128a565b915091506110f081611377565b5095945050505050565b6001600160a01b03811660009081526005602052604090208054600181018255905b50919050565b505050565b611122838383611578565b60006111416002848418611a2c565b6105ac90848416611a14565b816001600160a01b0316836001600160a01b03161415801561116f5750600081115b15611122576001600160a01b038316156111fd576001600160a01b038316600090815260076020526040812081906111aa906115aa856115b6565b91509150846001600160a01b03167fdec2bacdd2f05b59de34da9b523dff8be42e5e38e818c82fdb0bae774387a72483836040516111f2929190918252602082015260400190565b60405180910390a250505b6001600160a01b03821615611122576001600160a01b0382166000908152600760205260408120819061123390611759856115b6565b91509150836001600160a01b03167fdec2bacdd2f05b59de34da9b523dff8be42e5e38e818c82fdb0bae774387a724838360405161127b929190918252602082015260400190565b60405180910390a25050505050565b6000807f7fffffffffffffffffffffffffffffff5d576e7357a4501ddfe92f46681b20a08311156112c1575060009050600361136e565b8460ff16601b141580156112d957508460ff16601c14155b156112ea575060009050600461136e565b6040805160008082526020820180845289905260ff881692820192909252606081018690526080810185905260019060a0016020604051602081039080840390855afa15801561133e573d6000803e3d6000fd5b5050604051601f1901519150506001600160a01b0381166113675760006001925092505061136e565b9150600090505b94509492505050565b600081600481111561139957634e487b7160e01b600052602160045260246000fd5b14156113a25750565b60018160048111156113c457634e487b7160e01b600052602160045260246000fd5b14156114125760405162461bcd60e51b815260206004820152601860248201527f45434453413a20696e76616c6964207369676e6174757265000000000000000060448201526064016104cd565b600281600481111561143457634e487b7160e01b600052602160045260246000fd5b14156114825760405162461bcd60e51b815260206004820152601f60248201527f45434453413a20696e76616c6964207369676e6174757265206c656e6774680060448201526064016104cd565b60038160048111156114a457634e487b7160e01b600052602160045260246000fd5b14156114fd5760405162461bcd60e51b815260206004820152602260248201527f45434453413a20696e76616c6964207369676e6174757265202773272076616c604482015261756560f01b60648201526084016104cd565b600481600481111561151f57634e487b7160e01b600052602160045260246000fd5b14156105bd5760405162461bcd60e51b815260206004820152602260248201527f45434453413a20696e76616c6964207369676e6174757265202776272076616c604482015261756560f01b60648201526084016104cd565b6001600160a01b038381166000908152600660205260408082205485841683529120546111229291821691168361114d565b60006105ac8284611a4c565b82546000908190801561160f57856115cf600183611a4c565b815481106115ed57634e487b7160e01b600052603260045260246000fd5b60009182526020909120015464010000000090046001600160e01b0316611612565b60005b6001600160e01b0316925061162b83858763ffffffff16565b915060008111801561167757504386611645600184611a4c565b8154811061166357634e487b7160e01b600052603260045260246000fd5b60009182526020909120015463ffffffff16145b156116e55761168582611765565b86611691600184611a4c565b815481106116af57634e487b7160e01b600052603260045260246000fd5b9060005260206000200160000160046101000a8154816001600160e01b0302191690836001600160e01b03160217905550611750565b8560405180604001604052806116fa4361101b565b63ffffffff16815260200161170e85611765565b6001600160e01b0390811690915282546001810184556000938452602093849020835194909301519091166401000000000263ffffffff909316929092179101555b50935093915050565b60006105ac8284611a14565b60006001600160e01b038211156110805760405162461bcd60e51b815260206004820152602760248201527f53616665436173743a2076616c756520646f65736e27742066697420696e20326044820152663234206269747360c81b60648201526084016104cd565b80356001600160a01b03811681146117e557600080fd5b919050565b803560ff811681146117e557600080fd5b60006020828403121561180c578081fd5b6105ac826117ce565b60008060408385031215611827578081fd5b611830836117ce565b915061183e602084016117ce565b90509250929050565b60008060006060848603121561185b578081fd5b611864846117ce565b9250611872602085016117ce565b9150604084013590509250925092565b600080600080600080600060e0888a03121561189c578283fd5b6118a5886117ce565b96506118b3602089016117ce565b955060408801359450606088013593506118cf608089016117ea565b925060a0880135915060c0880135905092959891949750929550565b600080604083850312156118fd578182fd5b611906836117ce565b946020939093013593505050565b60008060008060008060c0878903121561192c578182fd5b611935876117ce565b95506020870135945060408701359350611951606088016117ea565b92506080870135915060a087013590509295509295509295565b6000806040838503121561197d578182fd5b611986836117ce565b9150602083013563ffffffff8116811461199e578182fd5b809150509250929050565b6000602082840312156119ba578081fd5b5035919050565b6000602080835283518082850152825b818110156119ed578581018301518582016040015282016119d1565b818111156119fe5783604083870101525b50601f01601f1916929092016040019392505050565b60008219821115611a2757611a27611a98565b500190565b600082611a4757634e487b7160e01b81526012600452602481fd5b500490565b600082821015611a5e57611a5e611a98565b500390565b600181811c90821680611a7757607f821691505b6020821081141561111c57634e487b7160e01b600052602260045260246000fd5b634e487b7160e01b600052601160045260246000fdfea26469706673582212207bd36ef8f89cf4c47a00e25a2ead225b7550dc728de0e39efd0cf4018a516ded64736f6c63430008040033",
  "linkReferences": {},
  "deployedLinkReferences": {}
}